{
  "_format": "hh-sol-artifact-1",
  "contractName": "Metapass",
  "sourceName": "contracts/Metapass.sol",
  "abi": [
    {
      "inputs": [],
      "stateMutability": "nonpayable",
      "type": "constructor"
    },
    {
      "anonymous": false,
      "inputs": [
        {
          "indexed": true,
          "internalType": "address",
          "name": "owner",
          "type": "address"
        },
        {
          "indexed": true,
          "internalType": "address",
          "name": "approved",
          "type": "address"
        },
        {
          "indexed": true,
          "internalType": "uint256",
          "name": "tokenId",
          "type": "uint256"
        }
      ],
      "name": "Approval",
      "type": "event"
    },
    {
      "anonymous": false,
      "inputs": [
        {
          "indexed": true,
          "internalType": "address",
          "name": "owner",
          "type": "address"
        },
        {
          "indexed": true,
          "internalType": "address",
          "name": "operator",
          "type": "address"
        },
        {
          "indexed": false,
          "internalType": "bool",
          "name": "approved",
          "type": "bool"
        }
      ],
      "name": "ApprovalForAll",
      "type": "event"
    },
    {
      "anonymous": false,
      "inputs": [
        {
          "indexed": true,
          "internalType": "uint256",
          "name": "_id",
          "type": "uint256"
        }
      ],
      "name": "Minted",
      "type": "event"
    },
    {
      "anonymous": false,
      "inputs": [
        {
          "indexed": true,
          "internalType": "address",
          "name": "previousOwner",
          "type": "address"
        },
        {
          "indexed": true,
          "internalType": "address",
          "name": "newOwner",
          "type": "address"
        }
      ],
      "name": "OwnershipTransferred",
      "type": "event"
    },
    {
      "anonymous": false,
      "inputs": [
        {
          "indexed": true,
          "internalType": "address",
          "name": "from",
          "type": "address"
        },
        {
          "indexed": true,
          "internalType": "address",
          "name": "to",
          "type": "address"
        },
        {
          "indexed": true,
          "internalType": "uint256",
          "name": "tokenId",
          "type": "uint256"
        }
      ],
      "name": "Transfer",
      "type": "event"
    },
    {
      "inputs": [],
      "name": "_claims",
      "outputs": [
        {
          "internalType": "uint256",
          "name": "",
          "type": "uint256"
        }
      ],
      "stateMutability": "view",
      "type": "function"
    },
    {
      "inputs": [],
      "name": "_toggleMinting",
      "outputs": [],
      "stateMutability": "nonpayable",
      "type": "function"
    },
    {
      "inputs": [
        {
          "internalType": "address",
          "name": "to",
          "type": "address"
        },
        {
          "internalType": "uint256",
          "name": "tokenId",
          "type": "uint256"
        }
      ],
      "name": "approve",
      "outputs": [],
      "stateMutability": "nonpayable",
      "type": "function"
    },
    {
      "inputs": [
        {
          "internalType": "address",
          "name": "owner",
          "type": "address"
        }
      ],
      "name": "balanceOf",
      "outputs": [
        {
          "internalType": "uint256",
          "name": "",
          "type": "uint256"
        }
      ],
      "stateMutability": "view",
      "type": "function"
    },
    {
      "inputs": [],
      "name": "cutDenominator",
      "outputs": [
        {
          "internalType": "uint256",
          "name": "",
          "type": "uint256"
        }
      ],
      "stateMutability": "view",
      "type": "function"
    },
    {
      "inputs": [],
      "name": "cutNumerator",
      "outputs": [
        {
          "internalType": "uint256",
          "name": "",
          "type": "uint256"
        }
      ],
      "stateMutability": "view",
      "type": "function"
    },
    {
      "inputs": [
        {
          "internalType": "uint256",
          "name": "tokenId",
          "type": "uint256"
        }
      ],
      "name": "getApproved",
      "outputs": [
        {
          "internalType": "address",
          "name": "",
          "type": "address"
        }
      ],
      "stateMutability": "view",
      "type": "function"
    },
    {
      "inputs": [],
      "name": "getEventDetails",
      "outputs": [
        {
          "components": [
            {
              "internalType": "string",
              "name": "encryptedLink",
              "type": "string"
            },
            {
              "internalType": "string",
              "name": "title",
              "type": "string"
            }
          ],
          "internalType": "struct Metapass.EventData[]",
          "name": "_EventData",
          "type": "tuple[]"
        }
      ],
      "stateMutability": "view",
      "type": "function"
    },
    {
      "inputs": [
        {
          "internalType": "address",
          "name": "eventOwner",
          "type": "address"
        },
        {
          "internalType": "string",
          "name": "tokenMetadata",
          "type": "string"
        },
        {
          "internalType": "string",
          "name": "_link",
          "type": "string"
        },
        {
          "internalType": "string",
          "name": "_title",
          "type": "string"
        }
      ],
      "name": "getTix",
      "outputs": [
        {
          "internalType": "uint256",
          "name": "",
          "type": "uint256"
        }
      ],
      "stateMutability": "payable",
      "type": "function"
    },
    {
      "inputs": [
        {
          "internalType": "address",
          "name": "owner",
          "type": "address"
        },
        {
          "internalType": "address",
          "name": "operator",
          "type": "address"
        }
      ],
      "name": "isApprovedForAll",
      "outputs": [
        {
          "internalType": "bool",
          "name": "",
          "type": "bool"
        }
      ],
      "stateMutability": "view",
      "type": "function"
    },
    {
      "inputs": [],
      "name": "name",
      "outputs": [
        {
          "internalType": "string",
          "name": "",
          "type": "string"
        }
      ],
      "stateMutability": "view",
      "type": "function"
    },
    {
      "inputs": [],
      "name": "owner",
      "outputs": [
        {
          "internalType": "address",
          "name": "",
          "type": "address"
        }
      ],
      "stateMutability": "view",
      "type": "function"
    },
    {
      "inputs": [
        {
          "internalType": "uint256",
          "name": "tokenId",
          "type": "uint256"
        }
      ],
      "name": "ownerOf",
      "outputs": [
        {
          "internalType": "address",
          "name": "",
          "type": "address"
        }
      ],
      "stateMutability": "view",
      "type": "function"
    },
    {
      "inputs": [],
      "name": "renounceOwnership",
      "outputs": [],
      "stateMutability": "nonpayable",
      "type": "function"
    },
    {
      "inputs": [
        {
          "internalType": "address",
          "name": "from",
          "type": "address"
        },
        {
          "internalType": "address",
          "name": "to",
          "type": "address"
        },
        {
          "internalType": "uint256",
          "name": "tokenId",
          "type": "uint256"
        }
      ],
      "name": "safeTransferFrom",
      "outputs": [],
      "stateMutability": "nonpayable",
      "type": "function"
    },
    {
      "inputs": [
        {
          "internalType": "address",
          "name": "from",
          "type": "address"
        },
        {
          "internalType": "address",
          "name": "to",
          "type": "address"
        },
        {
          "internalType": "uint256",
          "name": "tokenId",
          "type": "uint256"
        },
        {
          "internalType": "bytes",
          "name": "_data",
          "type": "bytes"
        }
      ],
      "name": "safeTransferFrom",
      "outputs": [],
      "stateMutability": "nonpayable",
      "type": "function"
    },
    {
      "inputs": [
        {
          "internalType": "address",
          "name": "operator",
          "type": "address"
        },
        {
          "internalType": "bool",
          "name": "approved",
          "type": "bool"
        }
      ],
      "name": "setApprovalForAll",
      "outputs": [],
      "stateMutability": "nonpayable",
      "type": "function"
    },
    {
      "inputs": [
        {
          "internalType": "bytes4",
          "name": "interfaceId",
          "type": "bytes4"
        }
      ],
      "name": "supportsInterface",
      "outputs": [
        {
          "internalType": "bool",
          "name": "",
          "type": "bool"
        }
      ],
      "stateMutability": "view",
      "type": "function"
    },
    {
      "inputs": [],
      "name": "symbol",
      "outputs": [
        {
          "internalType": "string",
          "name": "",
          "type": "string"
        }
      ],
      "stateMutability": "view",
      "type": "function"
    },
    {
      "inputs": [
        {
          "internalType": "uint256",
          "name": "tokenId",
          "type": "uint256"
        }
      ],
      "name": "tokenURI",
      "outputs": [
        {
          "internalType": "string",
          "name": "",
          "type": "string"
        }
      ],
      "stateMutability": "view",
      "type": "function"
    },
    {
      "inputs": [
        {
          "internalType": "address",
          "name": "from",
          "type": "address"
        },
        {
          "internalType": "address",
          "name": "to",
          "type": "address"
        },
        {
          "internalType": "uint256",
          "name": "tokenId",
          "type": "uint256"
        }
      ],
      "name": "transferFrom",
      "outputs": [],
      "stateMutability": "nonpayable",
      "type": "function"
    },
    {
      "inputs": [
        {
          "internalType": "address",
          "name": "newOwner",
          "type": "address"
        }
      ],
      "name": "transferOwnership",
      "outputs": [],
      "stateMutability": "nonpayable",
      "type": "function"
    },
    {
      "inputs": [
        {
          "internalType": "uint256",
          "name": "numerator",
          "type": "uint256"
        },
        {
          "internalType": "uint256",
          "name": "denominator",
          "type": "uint256"
        }
      ],
      "name": "updateCut",
      "outputs": [],
      "stateMutability": "nonpayable",
      "type": "function"
    },
    {
      "inputs": [],
      "name": "widthdraw",
      "outputs": [],
      "stateMutability": "nonpayable",
      "type": "function"
    }
  ],
  "bytecode": "0x6080604052600060085560646009556000600b60006101000a81548160ff0219169083151502179055503480156200003657600080fd5b506040518060400160405280600881526020017f4d657461706173730000000000000000000000000000000000000000000000008152506040518060400160405280600381526020017f4d504100000000000000000000000000000000000000000000000000000000008152508160009080519060200190620000bb929190620001cb565b508060019080519060200190620000d4929190620001cb565b505050620000f7620000eb620000fd60201b60201c565b6200010560201b60201c565b620002e0565b600033905090565b6000600760009054906101000a900473ffffffffffffffffffffffffffffffffffffffff16905081600760006101000a81548173ffffffffffffffffffffffffffffffffffffffff021916908373ffffffffffffffffffffffffffffffffffffffff1602179055508173ffffffffffffffffffffffffffffffffffffffff168173ffffffffffffffffffffffffffffffffffffffff167f8be0079c531659141344cd1fd0a4f28419497f9722a3daafe3b4186f6b6457e060405160405180910390a35050565b828054620001d9906200027b565b90600052602060002090601f016020900481019282620001fd576000855562000249565b82601f106200021857805160ff191683800117855562000249565b8280016001018555821562000249579182015b82811115620002485782518255916020019190600101906200022b565b5b5090506200025891906200025c565b5090565b5b80821115620002775760008160009055506001016200025d565b5090565b600060028204905060018216806200029457607f821691505b60208210811415620002ab57620002aa620002b1565b5b50919050565b7f4e487b7100000000000000000000000000000000000000000000000000000000600052602260045260246000fd5b613ab980620002f06000396000f3fe60806040526004361061014b5760003560e01c80637420cc65116100b6578063b88d4fde1161006f578063b88d4fde14610458578063c87b56dd14610481578063d28970e7146104be578063e2bb3ccf146104ee578063e985e9c514610519578063f2fde38b146105565761014b565b80637420cc651461035a5780638da5cb5b1461038357806395d89b41146103ae578063a1b1a981146103d9578063a22cb46514610404578063abf0f5731461042d5761014b565b806342842e0e1161010857806342842e0e1461027257806352b50a2a1461029b57806354b3f266146102b25780636352211e146102c957806370a0823114610306578063715018a6146103435761014b565b806301ffc9a71461015057806306fdde031461018d578063081812fc146101b8578063089eb32d146101f5578063095ea7b31461022057806323b872dd14610249575b600080fd5b34801561015c57600080fd5b50610177600480360381019061017291906127f4565b61057f565b6040516101849190612dc7565b60405180910390f35b34801561019957600080fd5b506101a2610661565b6040516101af9190612de2565b60405180910390f35b3480156101c457600080fd5b506101df60048036038101906101da9190612846565b6106f3565b6040516101ec9190612d3e565b60405180910390f35b34801561020157600080fd5b5061020a610778565b6040516102179190613064565b60405180910390f35b34801561022c57600080fd5b50610247600480360381019061024291906127b8565b61077e565b005b34801561025557600080fd5b50610270600480360381019061026b9190612607565b610896565b005b34801561027e57600080fd5b5061029960048036038101906102949190612607565b6108f6565b005b3480156102a757600080fd5b506102b0610916565b005b3480156102be57600080fd5b506102c76109e9565b005b3480156102d557600080fd5b506102f060048036038101906102eb9190612846565b610a91565b6040516102fd9190612d3e565b60405180910390f35b34801561031257600080fd5b5061032d600480360381019061032891906125a2565b610b43565b60405161033a9190613064565b60405180910390f35b34801561034f57600080fd5b50610358610bfb565b005b34801561036657600080fd5b50610381600480360381019061037c919061286f565b610c83565b005b34801561038f57600080fd5b50610398610d11565b6040516103a59190612d3e565b60405180910390f35b3480156103ba57600080fd5b506103c3610d3b565b6040516103d09190612de2565b60405180910390f35b3480156103e557600080fd5b506103ee610dcd565b6040516103fb9190613064565b60405180910390f35b34801561041057600080fd5b5061042b600480360381019061042691906126d1565b610e14565b005b34801561043957600080fd5b50610442610f95565b60405161044f9190613064565b60405180910390f35b34801561046457600080fd5b5061047f600480360381019061047a9190612656565b610f9b565b005b34801561048d57600080fd5b506104a860048036038101906104a39190612846565b610ffd565b6040516104b59190612de2565b60405180910390f35b6104d860048036038101906104d3919061270d565b61114f565b6040516104e59190613064565b60405180910390f35b3480156104fa57600080fd5b5061050361138e565b6040516105109190612da5565b60405180910390f35b34801561052557600080fd5b50610540600480360381019061053b91906125cb565b61154e565b60405161054d9190612dc7565b60405180910390f35b34801561056257600080fd5b5061057d600480360381019061057891906125a2565b6115e2565b005b60007f80ac58cd000000000000000000000000000000000000000000000000000000007bffffffffffffffffffffffffffffffffffffffffffffffffffffffff1916827bffffffffffffffffffffffffffffffffffffffffffffffffffffffff1916148061064a57507f5b5e139f000000000000000000000000000000000000000000000000000000007bffffffffffffffffffffffffffffffffffffffffffffffffffffffff1916827bffffffffffffffffffffffffffffffffffffffffffffffffffffffff1916145b8061065a5750610659826116da565b5b9050919050565b6060600080546106709061335e565b80601f016020809104026020016040519081016040528092919081815260200182805461069c9061335e565b80156106e95780601f106106be576101008083540402835291602001916106e9565b820191906000526020600020905b8154815290600101906020018083116106cc57829003601f168201915b5050505050905090565b60006106fe82611744565b61073d576040517f08c379a000000000000000000000000000000000000000000000000000000000815260040161073490612f84565b60405180910390fd5b6004600083815260200190815260200160002060009054906101000a900473ffffffffffffffffffffffffffffffffffffffff169050919050565b60095481565b600061078982610a91565b90508073ffffffffffffffffffffffffffffffffffffffff168373ffffffffffffffffffffffffffffffffffffffff1614156107fa576040517f08c379a00000000000000000000000000000000000000000000000000000000081526004016107f190613004565b60405180910390fd5b8073ffffffffffffffffffffffffffffffffffffffff166108196117b0565b73ffffffffffffffffffffffffffffffffffffffff1614806108485750610847816108426117b0565b61154e565b5b610887576040517f08c379a000000000000000000000000000000000000000000000000000000000815260040161087e90612ec4565b60405180910390fd5b61089183836117b8565b505050565b6108a76108a16117b0565b82611871565b6108e6576040517f08c379a00000000000000000000000000000000000000000000000000000000081526004016108dd90613044565b60405180910390fd5b6108f183838361194f565b505050565b61091183838360405180602001604052806000815250610f9b565b505050565b6000600c60003373ffffffffffffffffffffffffffffffffffffffff1673ffffffffffffffffffffffffffffffffffffffff1681526020019081526020016000205490503373ffffffffffffffffffffffffffffffffffffffff166108fc829081150290604051600060405180830381858888f193505050501580156109a0573d6000803e3d6000fd5b506000600c60003373ffffffffffffffffffffffffffffffffffffffff1673ffffffffffffffffffffffffffffffffffffffff1681526020019081526020016000208190555050565b6109f16117b0565b73ffffffffffffffffffffffffffffffffffffffff16610a0f610d11565b73ffffffffffffffffffffffffffffffffffffffff1614610a65576040517f08c379a0000000000000000000000000000000000000000000000000000000008152600401610a5c90612fa4565b60405180910390fd5b600b60009054906101000a900460ff1615600b60006101000a81548160ff021916908315150217905550565b6000806002600084815260200190815260200160002060009054906101000a900473ffffffffffffffffffffffffffffffffffffffff169050600073ffffffffffffffffffffffffffffffffffffffff168173ffffffffffffffffffffffffffffffffffffffff161415610b3a576040517f08c379a0000000000000000000000000000000000000000000000000000000008152600401610b3190612f04565b60405180910390fd5b80915050919050565b60008073ffffffffffffffffffffffffffffffffffffffff168273ffffffffffffffffffffffffffffffffffffffff161415610bb4576040517f08c379a0000000000000000000000000000000000000000000000000000000008152600401610bab90612ee4565b60405180910390fd5b600360008373ffffffffffffffffffffffffffffffffffffffff1673ffffffffffffffffffffffffffffffffffffffff168152602001908152602001600020549050919050565b610c036117b0565b73ffffffffffffffffffffffffffffffffffffffff16610c21610d11565b73ffffffffffffffffffffffffffffffffffffffff1614610c77576040517f08c379a0000000000000000000000000000000000000000000000000000000008152600401610c6e90612fa4565b60405180910390fd5b610c816000611bab565b565b610c8b6117b0565b73ffffffffffffffffffffffffffffffffffffffff16610ca9610d11565b73ffffffffffffffffffffffffffffffffffffffff1614610cff576040517f08c379a0000000000000000000000000000000000000000000000000000000008152600401610cf690612fa4565b60405180910390fd5b81600881905550806009819055505050565b6000600760009054906101000a900473ffffffffffffffffffffffffffffffffffffffff16905090565b606060018054610d4a9061335e565b80601f0160208091040260200160405190810160405280929190818152602001828054610d769061335e565b8015610dc35780601f10610d9857610100808354040283529160200191610dc3565b820191906000526020600020905b815481529060010190602001808311610da657829003601f168201915b5050505050905090565b6000600c60003373ffffffffffffffffffffffffffffffffffffffff1673ffffffffffffffffffffffffffffffffffffffff16815260200190815260200160002054905090565b610e1c6117b0565b73ffffffffffffffffffffffffffffffffffffffff168273ffffffffffffffffffffffffffffffffffffffff161415610e8a576040517f08c379a0000000000000000000000000000000000000000000000000000000008152600401610e8190612e84565b60405180910390fd5b8060056000610e976117b0565b73ffffffffffffffffffffffffffffffffffffffff1673ffffffffffffffffffffffffffffffffffffffff16815260200190815260200160002060008473ffffffffffffffffffffffffffffffffffffffff1673ffffffffffffffffffffffffffffffffffffffff16815260200190815260200160002060006101000a81548160ff0219169083151502179055508173ffffffffffffffffffffffffffffffffffffffff16610f446117b0565b73ffffffffffffffffffffffffffffffffffffffff167f17307eab39ab6107e8899845ad3d59bd9653f200f220920489ca2b5937696c3183604051610f899190612dc7565b60405180910390a35050565b60085481565b610fac610fa66117b0565b83611871565b610feb576040517f08c379a0000000000000000000000000000000000000000000000000000000008152600401610fe290613044565b60405180910390fd5b610ff784848484611c71565b50505050565b606061100882611744565b611047576040517f08c379a000000000000000000000000000000000000000000000000000000000815260040161103e90612f64565b60405180910390fd5b60006006600084815260200190815260200160002080546110679061335e565b80601f01602080910402602001604051908101604052809291908181526020018280546110939061335e565b80156110e05780601f106110b5576101008083540402835291602001916110e0565b820191906000526020600020905b8154815290600101906020018083116110c357829003601f168201915b5050505050905060006110f1611ccd565b905060008151141561110757819250505061114a565b60008251111561113c578082604051602001611124929190612d1a565b6040516020818303038152906040529250505061114a565b61114584611ce4565b925050505b919050565b600060011515600b60009054906101000a900460ff161515146111a7576040517f08c379a000000000000000000000000000000000000000000000000000000000815260040161119e90613024565b60405180910390fd5b6111ba336111b5600a611d8b565b611d99565b6111cd6111c7600a611d8b565b85611db7565b60006111d9600a611d8b565b90506111e5600a611e2b565b6000600954600854346111f8919061321a565b61120291906131e9565b905060006040518060400160405280878152602001868152509050600d60003373ffffffffffffffffffffffffffffffffffffffff1673ffffffffffffffffffffffffffffffffffffffff16815260200190815260200160002081908060018154018082558091505060019003906000526020600020906002020160009091909190915060008201518160000190805190602001906112a29291906123c6565b5060208201518160010190805190602001906112bf9291906123c6565b50505081346112ce9190613274565b600c60008a73ffffffffffffffffffffffffffffffffffffffff1673ffffffffffffffffffffffffffffffffffffffff168152602001908152602001600020600082825461131c9190613193565b9250508190555081600c6000611330610d11565b73ffffffffffffffffffffffffffffffffffffffff1673ffffffffffffffffffffffffffffffffffffffff16815260200190815260200160002060008282546113799190613193565b92505081905550829350505050949350505050565b6060600d60003373ffffffffffffffffffffffffffffffffffffffff1673ffffffffffffffffffffffffffffffffffffffff168152602001908152602001600020805480602002602001604051908101604052809291908181526020016000905b8282101561154557838290600052602060002090600202016040518060400160405290816000820180546114229061335e565b80601f016020809104026020016040519081016040528092919081815260200182805461144e9061335e565b801561149b5780601f106114705761010080835404028352916020019161149b565b820191906000526020600020905b81548152906001019060200180831161147e57829003601f168201915b505050505081526020016001820180546114b49061335e565b80601f01602080910402602001604051908101604052809291908181526020018280546114e09061335e565b801561152d5780601f106115025761010080835404028352916020019161152d565b820191906000526020600020905b81548152906001019060200180831161151057829003601f168201915b505050505081525050815260200190600101906113ef565b50505050905090565b6000600560008473ffffffffffffffffffffffffffffffffffffffff1673ffffffffffffffffffffffffffffffffffffffff16815260200190815260200160002060008373ffffffffffffffffffffffffffffffffffffffff1673ffffffffffffffffffffffffffffffffffffffff16815260200190815260200160002060009054906101000a900460ff16905092915050565b6115ea6117b0565b73ffffffffffffffffffffffffffffffffffffffff16611608610d11565b73ffffffffffffffffffffffffffffffffffffffff161461165e576040517f08c379a000000000000000000000000000000000000000000000000000000000815260040161165590612fa4565b60405180910390fd5b600073ffffffffffffffffffffffffffffffffffffffff168173ffffffffffffffffffffffffffffffffffffffff1614156116ce576040517f08c379a00000000000000000000000000000000000000000000000000000000081526004016116c590612e24565b60405180910390fd5b6116d781611bab565b50565b60007f01ffc9a7000000000000000000000000000000000000000000000000000000007bffffffffffffffffffffffffffffffffffffffffffffffffffffffff1916827bffffffffffffffffffffffffffffffffffffffffffffffffffffffff1916149050919050565b60008073ffffffffffffffffffffffffffffffffffffffff166002600084815260200190815260200160002060009054906101000a900473ffffffffffffffffffffffffffffffffffffffff1673ffffffffffffffffffffffffffffffffffffffff1614159050919050565b600033905090565b816004600083815260200190815260200160002060006101000a81548173ffffffffffffffffffffffffffffffffffffffff021916908373ffffffffffffffffffffffffffffffffffffffff160217905550808273ffffffffffffffffffffffffffffffffffffffff1661182b83610a91565b73ffffffffffffffffffffffffffffffffffffffff167f8c5be1e5ebec7d5bd14f71427d1e84f3dd0314c0f7b2291e5b200ac8c7c3b92560405160405180910390a45050565b600061187c82611744565b6118bb576040517f08c379a00000000000000000000000000000000000000000000000000000000081526004016118b290612ea4565b60405180910390fd5b60006118c683610a91565b90508073ffffffffffffffffffffffffffffffffffffffff168473ffffffffffffffffffffffffffffffffffffffff16148061193557508373ffffffffffffffffffffffffffffffffffffffff1661191d846106f3565b73ffffffffffffffffffffffffffffffffffffffff16145b806119465750611945818561154e565b5b91505092915050565b8273ffffffffffffffffffffffffffffffffffffffff1661196f82610a91565b73ffffffffffffffffffffffffffffffffffffffff16146119c5576040517f08c379a00000000000000000000000000000000000000000000000000000000081526004016119bc90612fc4565b60405180910390fd5b600073ffffffffffffffffffffffffffffffffffffffff168273ffffffffffffffffffffffffffffffffffffffff161415611a35576040517f08c379a0000000000000000000000000000000000000000000000000000000008152600401611a2c90612e64565b60405180910390fd5b611a40838383611e41565b611a4b6000826117b8565b6001600360008573ffffffffffffffffffffffffffffffffffffffff1673ffffffffffffffffffffffffffffffffffffffff1681526020019081526020016000206000828254611a9b9190613274565b925050819055506001600360008473ffffffffffffffffffffffffffffffffffffffff1673ffffffffffffffffffffffffffffffffffffffff1681526020019081526020016000206000828254611af29190613193565b92505081905550816002600083815260200190815260200160002060006101000a81548173ffffffffffffffffffffffffffffffffffffffff021916908373ffffffffffffffffffffffffffffffffffffffff160217905550808273ffffffffffffffffffffffffffffffffffffffff168473ffffffffffffffffffffffffffffffffffffffff167fddf252ad1be2c89b69c2b068fc378daa952ba7f163c4a11628f55a4df523b3ef60405160405180910390a4505050565b6000600760009054906101000a900473ffffffffffffffffffffffffffffffffffffffff16905081600760006101000a81548173ffffffffffffffffffffffffffffffffffffffff021916908373ffffffffffffffffffffffffffffffffffffffff1602179055508173ffffffffffffffffffffffffffffffffffffffff168173ffffffffffffffffffffffffffffffffffffffff167f8be0079c531659141344cd1fd0a4f28419497f9722a3daafe3b4186f6b6457e060405160405180910390a35050565b611c7c84848461194f565b611c8884848484611e46565b611cc7576040517f08c379a0000000000000000000000000000000000000000000000000000000008152600401611cbe90612e04565b60405180910390fd5b50505050565b606060405180602001604052806000815250905090565b6060611cef82611744565b611d2e576040517f08c379a0000000000000000000000000000000000000000000000000000000008152600401611d2590612fe4565b60405180910390fd5b6000611d38611ccd565b90506000815111611d585760405180602001604052806000815250611d83565b80611d6284611fdd565b604051602001611d73929190612d1a565b6040516020818303038152906040525b915050919050565b600081600001549050919050565b611db382826040518060200160405280600081525061218a565b5050565b611dc082611744565b611dff576040517f08c379a0000000000000000000000000000000000000000000000000000000008152600401611df690612f24565b60405180910390fd5b80600660008481526020019081526020016000209080519060200190611e269291906123c6565b505050565b6001816000016000828254019250508190555050565b505050565b6000611e678473ffffffffffffffffffffffffffffffffffffffff166121e5565b15611fd0578373ffffffffffffffffffffffffffffffffffffffff1663150b7a02611e906117b0565b8786866040518563ffffffff1660e01b8152600401611eb29493929190612d59565b602060405180830381600087803b158015611ecc57600080fd5b505af1925050508015611efd57506040513d601f19601f82011682018060405250810190611efa919061281d565b60015b611f80573d8060008114611f2d576040519150601f19603f3d011682016040523d82523d6000602084013e611f32565b606091505b50600081511415611f78576040517f08c379a0000000000000000000000000000000000000000000000000000000008152600401611f6f90612e04565b60405180910390fd5b805181602001fd5b63150b7a0260e01b7bffffffffffffffffffffffffffffffffffffffffffffffffffffffff1916817bffffffffffffffffffffffffffffffffffffffffffffffffffffffff191614915050611fd5565b600190505b949350505050565b60606000821415612025576040518060400160405280600181526020017f30000000000000000000000000000000000000000000000000000000000000008152509050612185565b600082905060005b60008214612057578080612040906133c1565b915050600a8261205091906131e9565b915061202d565b60008167ffffffffffffffff811115612099577f4e487b7100000000000000000000000000000000000000000000000000000000600052604160045260246000fd5b6040519080825280601f01601f1916602001820160405280156120cb5781602001600182028036833780820191505090505b5090505b6000851461217e576001826120e49190613274565b9150600a856120f3919061340a565b60306120ff9190613193565b60f81b81838151811061213b577f4e487b7100000000000000000000000000000000000000000000000000000000600052603260045260246000fd5b60200101907effffffffffffffffffffffffffffffffffffffffffffffffffffffffffffff1916908160001a905350600a8561217791906131e9565b94506120cf565b8093505050505b919050565b61219483836121f8565b6121a16000848484611e46565b6121e0576040517f08c379a00000000000000000000000000000000000000000000000000000000081526004016121d790612e04565b60405180910390fd5b505050565b600080823b905060008111915050919050565b600073ffffffffffffffffffffffffffffffffffffffff168273ffffffffffffffffffffffffffffffffffffffff161415612268576040517f08c379a000000000000000000000000000000000000000000000000000000000815260040161225f90612f44565b60405180910390fd5b61227181611744565b156122b1576040517f08c379a00000000000000000000000000000000000000000000000000000000081526004016122a890612e44565b60405180910390fd5b6122bd60008383611e41565b6001600360008473ffffffffffffffffffffffffffffffffffffffff1673ffffffffffffffffffffffffffffffffffffffff168152602001908152602001600020600082825461230d9190613193565b92505081905550816002600083815260200190815260200160002060006101000a81548173ffffffffffffffffffffffffffffffffffffffff021916908373ffffffffffffffffffffffffffffffffffffffff160217905550808273ffffffffffffffffffffffffffffffffffffffff16600073ffffffffffffffffffffffffffffffffffffffff167fddf252ad1be2c89b69c2b068fc378daa952ba7f163c4a11628f55a4df523b3ef60405160405180910390a45050565b8280546123d29061335e565b90600052602060002090601f0160209004810192826123f4576000855561243b565b82601f1061240d57805160ff191683800117855561243b565b8280016001018555821561243b579182015b8281111561243a57825182559160200191906001019061241f565b5b509050612448919061244c565b5090565b5b8082111561246557600081600090555060010161244d565b5090565b600061247c612477846130a4565b61307f565b90508281526020810184848401111561249457600080fd5b61249f84828561331c565b509392505050565b60006124ba6124b5846130d5565b61307f565b9050828152602081018484840111156124d257600080fd5b6124dd84828561331c565b509392505050565b6000813590506124f481613a27565b92915050565b60008135905061250981613a3e565b92915050565b60008135905061251e81613a55565b92915050565b60008151905061253381613a55565b92915050565b600082601f83011261254a57600080fd5b813561255a848260208601612469565b91505092915050565b600082601f83011261257457600080fd5b81356125848482602086016124a7565b91505092915050565b60008135905061259c81613a6c565b92915050565b6000602082840312156125b457600080fd5b60006125c2848285016124e5565b91505092915050565b600080604083850312156125de57600080fd5b60006125ec858286016124e5565b92505060206125fd858286016124e5565b9150509250929050565b60008060006060848603121561261c57600080fd5b600061262a868287016124e5565b935050602061263b868287016124e5565b925050604061264c8682870161258d565b9150509250925092565b6000806000806080858703121561266c57600080fd5b600061267a878288016124e5565b945050602061268b878288016124e5565b935050604061269c8782880161258d565b925050606085013567ffffffffffffffff8111156126b957600080fd5b6126c587828801612539565b91505092959194509250565b600080604083850312156126e457600080fd5b60006126f2858286016124e5565b9250506020612703858286016124fa565b9150509250929050565b6000806000806080858703121561272357600080fd5b6000612731878288016124e5565b945050602085013567ffffffffffffffff81111561274e57600080fd5b61275a87828801612563565b935050604085013567ffffffffffffffff81111561277757600080fd5b61278387828801612563565b925050606085013567ffffffffffffffff8111156127a057600080fd5b6127ac87828801612563565b91505092959194509250565b600080604083850312156127cb57600080fd5b60006127d9858286016124e5565b92505060206127ea8582860161258d565b9150509250929050565b60006020828403121561280657600080fd5b60006128148482850161250f565b91505092915050565b60006020828403121561282f57600080fd5b600061283d84828501612524565b91505092915050565b60006020828403121561285857600080fd5b60006128668482850161258d565b91505092915050565b6000806040838503121561288257600080fd5b60006128908582860161258d565b92505060206128a18582860161258d565b9150509250929050565b60006128b78383612cc7565b905092915050565b6128c8816132a8565b82525050565b60006128d982613116565b6128e38185613144565b9350836020820285016128f585613106565b8060005b85811015612931578484038952815161291285826128ab565b945061291d83613137565b925060208a019950506001810190506128f9565b50829750879550505050505092915050565b61294c816132ba565b82525050565b600061295d82613121565b6129678185613155565b935061297781856020860161332b565b612980816134f7565b840191505092915050565b60006129968261312c565b6129a08185613166565b93506129b081856020860161332b565b6129b9816134f7565b840191505092915050565b60006129cf8261312c565b6129d98185613177565b93506129e981856020860161332b565b6129f2816134f7565b840191505092915050565b6000612a088261312c565b612a128185613188565b9350612a2281856020860161332b565b80840191505092915050565b6000612a3b603283613177565b9150612a4682613508565b604082019050919050565b6000612a5e602683613177565b9150612a6982613557565b604082019050919050565b6000612a81601c83613177565b9150612a8c826135a6565b602082019050919050565b6000612aa4602483613177565b9150612aaf826135cf565b604082019050919050565b6000612ac7601983613177565b9150612ad28261361e565b602082019050919050565b6000612aea602c83613177565b9150612af582613647565b604082019050919050565b6000612b0d603883613177565b9150612b1882613696565b604082019050919050565b6000612b30602a83613177565b9150612b3b826136e5565b604082019050919050565b6000612b53602983613177565b9150612b5e82613734565b604082019050919050565b6000612b76602e83613177565b9150612b8182613783565b604082019050919050565b6000612b99602083613177565b9150612ba4826137d2565b602082019050919050565b6000612bbc603183613177565b9150612bc7826137fb565b604082019050919050565b6000612bdf602c83613177565b9150612bea8261384a565b604082019050919050565b6000612c02602083613177565b9150612c0d82613899565b602082019050919050565b6000612c25602983613177565b9150612c30826138c2565b604082019050919050565b6000612c48602f83613177565b9150612c5382613911565b604082019050919050565b6000612c6b602183613177565b9150612c7682613960565b604082019050919050565b6000612c8e601383613177565b9150612c99826139af565b602082019050919050565b6000612cb1603183613177565b9150612cbc826139d8565b604082019050919050565b60006040830160008301518482036000860152612ce4828261298b565b91505060208301518482036020860152612cfe828261298b565b9150508091505092915050565b612d1481613312565b82525050565b6000612d2682856129fd565b9150612d3282846129fd565b91508190509392505050565b6000602082019050612d5360008301846128bf565b92915050565b6000608082019050612d6e60008301876128bf565b612d7b60208301866128bf565b612d886040830185612d0b565b8181036060830152612d9a8184612952565b905095945050505050565b60006020820190508181036000830152612dbf81846128ce565b905092915050565b6000602082019050612ddc6000830184612943565b92915050565b60006020820190508181036000830152612dfc81846129c4565b905092915050565b60006020820190508181036000830152612e1d81612a2e565b9050919050565b60006020820190508181036000830152612e3d81612a51565b9050919050565b60006020820190508181036000830152612e5d81612a74565b9050919050565b60006020820190508181036000830152612e7d81612a97565b9050919050565b60006020820190508181036000830152612e9d81612aba565b9050919050565b60006020820190508181036000830152612ebd81612add565b9050919050565b60006020820190508181036000830152612edd81612b00565b9050919050565b60006020820190508181036000830152612efd81612b23565b9050919050565b60006020820190508181036000830152612f1d81612b46565b9050919050565b60006020820190508181036000830152612f3d81612b69565b9050919050565b60006020820190508181036000830152612f5d81612b8c565b9050919050565b60006020820190508181036000830152612f7d81612baf565b9050919050565b60006020820190508181036000830152612f9d81612bd2565b9050919050565b60006020820190508181036000830152612fbd81612bf5565b9050919050565b60006020820190508181036000830152612fdd81612c18565b9050919050565b60006020820190508181036000830152612ffd81612c3b565b9050919050565b6000602082019050818103600083015261301d81612c5e565b9050919050565b6000602082019050818103600083015261303d81612c81565b9050919050565b6000602082019050818103600083015261305d81612ca4565b9050919050565b60006020820190506130796000830184612d0b565b92915050565b600061308961309a565b90506130958282613390565b919050565b6000604051905090565b600067ffffffffffffffff8211156130bf576130be6134c8565b5b6130c8826134f7565b9050602081019050919050565b600067ffffffffffffffff8211156130f0576130ef6134c8565b5b6130f9826134f7565b9050602081019050919050565b6000819050602082019050919050565b600081519050919050565b600081519050919050565b600081519050919050565b6000602082019050919050565b600082825260208201905092915050565b600082825260208201905092915050565b600082825260208201905092915050565b600082825260208201905092915050565b600081905092915050565b600061319e82613312565b91506131a983613312565b9250827fffffffffffffffffffffffffffffffffffffffffffffffffffffffffffffffff038211156131de576131dd61343b565b5b828201905092915050565b60006131f482613312565b91506131ff83613312565b92508261320f5761320e61346a565b5b828204905092915050565b600061322582613312565b915061323083613312565b9250817fffffffffffffffffffffffffffffffffffffffffffffffffffffffffffffffff04831182151516156132695761326861343b565b5b828202905092915050565b600061327f82613312565b915061328a83613312565b92508282101561329d5761329c61343b565b5b828203905092915050565b60006132b3826132f2565b9050919050565b60008115159050919050565b60007fffffffff0000000000000000000000000000000000000000000000000000000082169050919050565b600073ffffffffffffffffffffffffffffffffffffffff82169050919050565b6000819050919050565b82818337600083830152505050565b60005b8381101561334957808201518184015260208101905061332e565b83811115613358576000848401525b50505050565b6000600282049050600182168061337657607f821691505b6020821081141561338a57613389613499565b5b50919050565b613399826134f7565b810181811067ffffffffffffffff821117156133b8576133b76134c8565b5b80604052505050565b60006133cc82613312565b91507fffffffffffffffffffffffffffffffffffffffffffffffffffffffffffffffff8214156133ff576133fe61343b565b5b600182019050919050565b600061341582613312565b915061342083613312565b9250826134305761342f61346a565b5b828206905092915050565b7f4e487b7100000000000000000000000000000000000000000000000000000000600052601160045260246000fd5b7f4e487b7100000000000000000000000000000000000000000000000000000000600052601260045260246000fd5b7f4e487b7100000000000000000000000000000000000000000000000000000000600052602260045260246000fd5b7f4e487b7100000000000000000000000000000000000000000000000000000000600052604160045260246000fd5b6000601f19601f8301169050919050565b7f4552433732313a207472616e7366657220746f206e6f6e20455243373231526560008201527f63656976657220696d706c656d656e7465720000000000000000000000000000602082015250565b7f4f776e61626c653a206e6577206f776e657220697320746865207a65726f206160008201527f6464726573730000000000000000000000000000000000000000000000000000602082015250565b7f4552433732313a20746f6b656e20616c7265616479206d696e74656400000000600082015250565b7f4552433732313a207472616e7366657220746f20746865207a65726f2061646460008201527f7265737300000000000000000000000000000000000000000000000000000000602082015250565b7f4552433732313a20617070726f766520746f2063616c6c657200000000000000600082015250565b7f4552433732313a206f70657261746f7220717565727920666f72206e6f6e657860008201527f697374656e7420746f6b656e0000000000000000000000000000000000000000602082015250565b7f4552433732313a20617070726f76652063616c6c6572206973206e6f74206f7760008201527f6e6572206e6f7220617070726f76656420666f7220616c6c0000000000000000602082015250565b7f4552433732313a2062616c616e636520717565727920666f7220746865207a6560008201527f726f206164647265737300000000000000000000000000000000000000000000602082015250565b7f4552433732313a206f776e657220717565727920666f72206e6f6e657869737460008201527f656e7420746f6b656e0000000000000000000000000000000000000000000000602082015250565b7f45524337323155524953746f726167653a2055524920736574206f66206e6f6e60008201527f6578697374656e7420746f6b656e000000000000000000000000000000000000602082015250565b7f4552433732313a206d696e7420746f20746865207a65726f2061646472657373600082015250565b7f45524337323155524953746f726167653a2055524920717565727920666f722060008201527f6e6f6e6578697374656e7420746f6b656e000000000000000000000000000000602082015250565b7f4552433732313a20617070726f76656420717565727920666f72206e6f6e657860008201527f697374656e7420746f6b656e0000000000000000000000000000000000000000602082015250565b7f4f776e61626c653a2063616c6c6572206973206e6f7420746865206f776e6572600082015250565b7f4552433732313a207472616e73666572206f6620746f6b656e2074686174206960008201527f73206e6f74206f776e0000000000000000000000000000000000000000000000602082015250565b7f4552433732314d657461646174613a2055524920717565727920666f72206e6f60008201527f6e6578697374656e7420746f6b656e0000000000000000000000000000000000602082015250565b7f4552433732313a20617070726f76616c20746f2063757272656e74206f776e6560008201527f7200000000000000000000000000000000000000000000000000000000000000602082015250565b7f53657276696365206e6f742072756e6e696e6700000000000000000000000000600082015250565b7f4552433732313a207472616e736665722063616c6c6572206973206e6f74206f60008201527f776e6572206e6f7220617070726f766564000000000000000000000000000000602082015250565b613a30816132a8565b8114613a3b57600080fd5b50565b613a47816132ba565b8114613a5257600080fd5b50565b613a5e816132c6565b8114613a6957600080fd5b50565b613a7581613312565b8114613a8057600080fd5b5056fea2646970667358221220b76a1a73a48c21c8c8425668159bde9941f383aa0044b9ef68873d95bcaf2cb064736f6c63430008040033",
  "linkReferences": {},
  "deployedLinkReferences": {}
}