{
  "_format": "hh-sol-artifact-1",
  "contractName": "Metapass",
  "sourceName": "contracts/Metapass.sol",
  "abi": [
    {
      "inputs": [],
      "stateMutability": "nonpayable",
      "type": "constructor"
    },
    {
      "anonymous": false,
      "inputs": [
        {
          "indexed": true,
          "internalType": "address",
          "name": "owner",
          "type": "address"
        },
        {
          "indexed": true,
          "internalType": "address",
          "name": "approved",
          "type": "address"
        },
        {
          "indexed": true,
          "internalType": "uint256",
          "name": "tokenId",
          "type": "uint256"
        }
      ],
      "name": "Approval",
      "type": "event"
    },
    {
      "anonymous": false,
      "inputs": [
        {
          "indexed": true,
          "internalType": "address",
          "name": "owner",
          "type": "address"
        },
        {
          "indexed": true,
          "internalType": "address",
          "name": "operator",
          "type": "address"
        },
        {
          "indexed": false,
          "internalType": "bool",
          "name": "approved",
          "type": "bool"
        }
      ],
      "name": "ApprovalForAll",
      "type": "event"
    },
    {
      "anonymous": false,
      "inputs": [
        {
          "indexed": true,
          "internalType": "uint256",
          "name": "_id",
          "type": "uint256"
        }
      ],
      "name": "Minted",
      "type": "event"
    },
    {
      "anonymous": false,
      "inputs": [
        {
          "indexed": true,
          "internalType": "address",
          "name": "previousOwner",
          "type": "address"
        },
        {
          "indexed": true,
          "internalType": "address",
          "name": "newOwner",
          "type": "address"
        }
      ],
      "name": "OwnershipTransferred",
      "type": "event"
    },
    {
      "anonymous": false,
      "inputs": [
        {
          "indexed": true,
          "internalType": "address",
          "name": "from",
          "type": "address"
        },
        {
          "indexed": true,
          "internalType": "address",
          "name": "to",
          "type": "address"
        },
        {
          "indexed": true,
          "internalType": "uint256",
          "name": "tokenId",
          "type": "uint256"
        }
      ],
      "name": "Transfer",
      "type": "event"
    },
    {
      "inputs": [],
      "name": "_claims",
      "outputs": [
        {
          "internalType": "uint256",
          "name": "",
          "type": "uint256"
        }
      ],
      "stateMutability": "view",
      "type": "function"
    },
    {
      "inputs": [],
      "name": "_toggleMinting",
      "outputs": [],
      "stateMutability": "nonpayable",
      "type": "function"
    },
    {
      "inputs": [
        {
          "internalType": "address",
          "name": "to",
          "type": "address"
        },
        {
          "internalType": "uint256",
          "name": "tokenId",
          "type": "uint256"
        }
      ],
      "name": "approve",
      "outputs": [],
      "stateMutability": "nonpayable",
      "type": "function"
    },
    {
      "inputs": [
        {
          "internalType": "address",
          "name": "owner",
          "type": "address"
        }
      ],
      "name": "balanceOf",
      "outputs": [
        {
          "internalType": "uint256",
          "name": "",
          "type": "uint256"
        }
      ],
      "stateMutability": "view",
      "type": "function"
    },
    {
      "inputs": [],
      "name": "cutDenominator",
      "outputs": [
        {
          "internalType": "uint256",
          "name": "",
          "type": "uint256"
        }
      ],
      "stateMutability": "view",
      "type": "function"
    },
    {
      "inputs": [],
      "name": "cutNumerator",
      "outputs": [
        {
          "internalType": "uint256",
          "name": "",
          "type": "uint256"
        }
      ],
      "stateMutability": "view",
      "type": "function"
    },
    {
      "inputs": [
        {
          "internalType": "uint256",
          "name": "tokenId",
          "type": "uint256"
        }
      ],
      "name": "getApproved",
      "outputs": [
        {
          "internalType": "address",
          "name": "",
          "type": "address"
        }
      ],
      "stateMutability": "view",
      "type": "function"
    },
    {
      "inputs": [],
      "name": "getEventDetails",
      "outputs": [
        {
          "components": [
            {
              "internalType": "string",
              "name": "encryptedLink",
              "type": "string"
            },
            {
              "internalType": "string",
              "name": "title",
              "type": "string"
            }
          ],
          "internalType": "struct Metapass.EventData[]",
          "name": "_EventData",
          "type": "tuple[]"
        }
      ],
      "stateMutability": "view",
      "type": "function"
    },
    {
      "inputs": [
        {
          "internalType": "address",
          "name": "eventOwner",
          "type": "address"
        },
        {
          "internalType": "string",
          "name": "tokenMetadata",
          "type": "string"
        },
        {
          "internalType": "string",
          "name": "_link",
          "type": "string"
        },
        {
          "internalType": "string",
          "name": "_title",
          "type": "string"
        },
        {
          "internalType": "uint256",
          "name": "_id",
          "type": "uint256"
        }
      ],
      "name": "getTix",
      "outputs": [
        {
          "internalType": "uint256",
          "name": "",
          "type": "uint256"
        }
      ],
      "stateMutability": "payable",
      "type": "function"
    },
    {
      "inputs": [
        {
          "internalType": "address",
          "name": "owner",
          "type": "address"
        },
        {
          "internalType": "address",
          "name": "operator",
          "type": "address"
        }
      ],
      "name": "isApprovedForAll",
      "outputs": [
        {
          "internalType": "bool",
          "name": "",
          "type": "bool"
        }
      ],
      "stateMutability": "view",
      "type": "function"
    },
    {
      "inputs": [],
      "name": "name",
      "outputs": [
        {
          "internalType": "string",
          "name": "",
          "type": "string"
        }
      ],
      "stateMutability": "view",
      "type": "function"
    },
    {
      "inputs": [],
      "name": "owner",
      "outputs": [
        {
          "internalType": "address",
          "name": "",
          "type": "address"
        }
      ],
      "stateMutability": "view",
      "type": "function"
    },
    {
      "inputs": [
        {
          "internalType": "uint256",
          "name": "tokenId",
          "type": "uint256"
        }
      ],
      "name": "ownerOf",
      "outputs": [
        {
          "internalType": "address",
          "name": "",
          "type": "address"
        }
      ],
      "stateMutability": "view",
      "type": "function"
    },
    {
      "inputs": [],
      "name": "renounceOwnership",
      "outputs": [],
      "stateMutability": "nonpayable",
      "type": "function"
    },
    {
      "inputs": [
        {
          "internalType": "address",
          "name": "from",
          "type": "address"
        },
        {
          "internalType": "address",
          "name": "to",
          "type": "address"
        },
        {
          "internalType": "uint256",
          "name": "tokenId",
          "type": "uint256"
        }
      ],
      "name": "safeTransferFrom",
      "outputs": [],
      "stateMutability": "nonpayable",
      "type": "function"
    },
    {
      "inputs": [
        {
          "internalType": "address",
          "name": "from",
          "type": "address"
        },
        {
          "internalType": "address",
          "name": "to",
          "type": "address"
        },
        {
          "internalType": "uint256",
          "name": "tokenId",
          "type": "uint256"
        },
        {
          "internalType": "bytes",
          "name": "_data",
          "type": "bytes"
        }
      ],
      "name": "safeTransferFrom",
      "outputs": [],
      "stateMutability": "nonpayable",
      "type": "function"
    },
    {
      "inputs": [
        {
          "internalType": "address",
          "name": "operator",
          "type": "address"
        },
        {
          "internalType": "bool",
          "name": "approved",
          "type": "bool"
        }
      ],
      "name": "setApprovalForAll",
      "outputs": [],
      "stateMutability": "nonpayable",
      "type": "function"
    },
    {
      "inputs": [
        {
          "internalType": "bytes4",
          "name": "interfaceId",
          "type": "bytes4"
        }
      ],
      "name": "supportsInterface",
      "outputs": [
        {
          "internalType": "bool",
          "name": "",
          "type": "bool"
        }
      ],
      "stateMutability": "view",
      "type": "function"
    },
    {
      "inputs": [],
      "name": "symbol",
      "outputs": [
        {
          "internalType": "string",
          "name": "",
          "type": "string"
        }
      ],
      "stateMutability": "view",
      "type": "function"
    },
    {
      "inputs": [
        {
          "internalType": "uint256",
          "name": "tokenId",
          "type": "uint256"
        }
      ],
      "name": "tokenURI",
      "outputs": [
        {
          "internalType": "string",
          "name": "",
          "type": "string"
        }
      ],
      "stateMutability": "view",
      "type": "function"
    },
    {
      "inputs": [
        {
          "internalType": "address",
          "name": "from",
          "type": "address"
        },
        {
          "internalType": "address",
          "name": "to",
          "type": "address"
        },
        {
          "internalType": "uint256",
          "name": "tokenId",
          "type": "uint256"
        }
      ],
      "name": "transferFrom",
      "outputs": [],
      "stateMutability": "nonpayable",
      "type": "function"
    },
    {
      "inputs": [
        {
          "internalType": "address",
          "name": "newOwner",
          "type": "address"
        }
      ],
      "name": "transferOwnership",
      "outputs": [],
      "stateMutability": "nonpayable",
      "type": "function"
    },
    {
      "inputs": [
        {
          "internalType": "uint256",
          "name": "numerator",
          "type": "uint256"
        },
        {
          "internalType": "uint256",
          "name": "denominator",
          "type": "uint256"
        }
      ],
      "name": "updateCut",
      "outputs": [],
      "stateMutability": "nonpayable",
      "type": "function"
    },
    {
      "inputs": [],
      "name": "widthdraw",
      "outputs": [],
      "stateMutability": "nonpayable",
      "type": "function"
    }
  ],
  "bytecode": "0x6080604052600060085560646009556000600b60006101000a81548160ff0219169083151502179055503480156200003657600080fd5b506040518060400160405280600881526020017f4d657461706173730000000000000000000000000000000000000000000000008152506040518060400160405280600381526020017f4d504100000000000000000000000000000000000000000000000000000000008152508160009080519060200190620000bb929190620001cb565b508060019080519060200190620000d4929190620001cb565b505050620000f7620000eb620000fd60201b60201c565b6200010560201b60201c565b620002e0565b600033905090565b6000600760009054906101000a900473ffffffffffffffffffffffffffffffffffffffff16905081600760006101000a81548173ffffffffffffffffffffffffffffffffffffffff021916908373ffffffffffffffffffffffffffffffffffffffff1602179055508173ffffffffffffffffffffffffffffffffffffffff168173ffffffffffffffffffffffffffffffffffffffff167f8be0079c531659141344cd1fd0a4f28419497f9722a3daafe3b4186f6b6457e060405160405180910390a35050565b828054620001d9906200027b565b90600052602060002090601f016020900481019282620001fd576000855562000249565b82601f106200021857805160ff191683800117855562000249565b8280016001018555821562000249579182015b82811115620002485782518255916020019190600101906200022b565b5b5090506200025891906200025c565b5090565b5b80821115620002775760008160009055506001016200025d565b5090565b600060028204905060018216806200029457607f821691505b60208210811415620002ab57620002aa620002b1565b5b50919050565b7f4e487b7100000000000000000000000000000000000000000000000000000000600052602260045260246000fd5b613ace80620002f06000396000f3fe60806040526004361061014b5760003560e01c8063715018a6116100b6578063abf0f5731161006f578063abf0f5731461045d578063b88d4fde14610488578063c87b56dd146104b1578063e2bb3ccf146104ee578063e985e9c514610519578063f2fde38b146105565761014b565b8063715018a6146103735780637420cc651461038a5780638da5cb5b146103b357806395d89b41146103de578063a1b1a98114610409578063a22cb465146104345761014b565b806323b872dd1161010857806323b872dd1461027957806342842e0e146102a257806352b50a2a146102cb57806354b3f266146102e25780636352211e146102f957806370a08231146103365761014b565b806301ffc9a71461015057806306fdde031461018d578063081812fc146101b8578063089eb32d146101f5578063095ea7b314610220578063133745c514610249575b600080fd5b34801561015c57600080fd5b5061017760048036038101906101729190612809565b61057f565b6040516101849190612ddc565b60405180910390f35b34801561019957600080fd5b506101a2610661565b6040516101af9190612df7565b60405180910390f35b3480156101c457600080fd5b506101df60048036038101906101da919061285b565b6106f3565b6040516101ec9190612d53565b60405180910390f35b34801561020157600080fd5b5061020a610778565b6040516102179190613079565b60405180910390f35b34801561022c57600080fd5b50610247600480360381019061024291906127cd565b61077e565b005b610263600480360381019061025e919061270e565b610896565b6040516102709190613079565b60405180910390f35b34801561028557600080fd5b506102a0600480360381019061029b9190612608565b610ad6565b005b3480156102ae57600080fd5b506102c960048036038101906102c49190612608565b610b36565b005b3480156102d757600080fd5b506102e0610b56565b005b3480156102ee57600080fd5b506102f7610c29565b005b34801561030557600080fd5b50610320600480360381019061031b919061285b565b610cd1565b60405161032d9190612d53565b60405180910390f35b34801561034257600080fd5b5061035d600480360381019061035891906125a3565b610d83565b60405161036a9190613079565b60405180910390f35b34801561037f57600080fd5b50610388610e3b565b005b34801561039657600080fd5b506103b160048036038101906103ac9190612884565b610ec3565b005b3480156103bf57600080fd5b506103c8610f51565b6040516103d59190612d53565b60405180910390f35b3480156103ea57600080fd5b506103f3610f7b565b6040516104009190612df7565b60405180910390f35b34801561041557600080fd5b5061041e61100d565b60405161042b9190613079565b60405180910390f35b34801561044057600080fd5b5061045b600480360381019061045691906126d2565b611054565b005b34801561046957600080fd5b506104726111d5565b60405161047f9190613079565b60405180910390f35b34801561049457600080fd5b506104af60048036038101906104aa9190612657565b6111db565b005b3480156104bd57600080fd5b506104d860048036038101906104d3919061285b565b61123d565b6040516104e59190612df7565b60405180910390f35b3480156104fa57600080fd5b5061050361138f565b6040516105109190612dba565b60405180910390f35b34801561052557600080fd5b50610540600480360381019061053b91906125cc565b61154f565b60405161054d9190612ddc565b60405180910390f35b34801561056257600080fd5b5061057d600480360381019061057891906125a3565b6115e3565b005b60007f80ac58cd000000000000000000000000000000000000000000000000000000007bffffffffffffffffffffffffffffffffffffffffffffffffffffffff1916827bffffffffffffffffffffffffffffffffffffffffffffffffffffffff1916148061064a57507f5b5e139f000000000000000000000000000000000000000000000000000000007bffffffffffffffffffffffffffffffffffffffffffffffffffffffff1916827bffffffffffffffffffffffffffffffffffffffffffffffffffffffff1916145b8061065a5750610659826116db565b5b9050919050565b60606000805461067090613373565b80601f016020809104026020016040519081016040528092919081815260200182805461069c90613373565b80156106e95780601f106106be576101008083540402835291602001916106e9565b820191906000526020600020905b8154815290600101906020018083116106cc57829003601f168201915b5050505050905090565b60006106fe82611745565b61073d576040517f08c379a000000000000000000000000000000000000000000000000000000000815260040161073490612f99565b60405180910390fd5b6004600083815260200190815260200160002060009054906101000a900473ffffffffffffffffffffffffffffffffffffffff169050919050565b60095481565b600061078982610cd1565b90508073ffffffffffffffffffffffffffffffffffffffff168373ffffffffffffffffffffffffffffffffffffffff1614156107fa576040517f08c379a00000000000000000000000000000000000000000000000000000000081526004016107f190613019565b60405180910390fd5b8073ffffffffffffffffffffffffffffffffffffffff166108196117b1565b73ffffffffffffffffffffffffffffffffffffffff1614806108485750610847816108426117b1565b61154f565b5b610887576040517f08c379a000000000000000000000000000000000000000000000000000000000815260040161087e90612ed9565b60405180910390fd5b61089183836117b9565b505050565b600060011515600b60009054906101000a900460ff161515146108ee576040517f08c379a00000000000000000000000000000000000000000000000000000000081526004016108e590613039565b60405180910390fd5b610901336108fc600a611872565b611880565b61091461090e600a611872565b8661189e565b6000610920600a611872565b905061092c600a611912565b60006009546008543461093f919061322f565b61094991906131fe565b905060006040518060400160405280888152602001878152509050600d60003373ffffffffffffffffffffffffffffffffffffffff1673ffffffffffffffffffffffffffffffffffffffff16815260200190815260200160002081908060018154018082558091505060019003906000526020600020906002020160009091909190915060008201518160000190805190602001906109e99291906123c7565b506020820151816001019080519060200190610a069291906123c7565b5050508134610a159190613289565b600c60008b73ffffffffffffffffffffffffffffffffffffffff1673ffffffffffffffffffffffffffffffffffffffff1681526020019081526020016000206000828254610a6391906131a8565b9250508190555081600c6000610a77610f51565b73ffffffffffffffffffffffffffffffffffffffff1673ffffffffffffffffffffffffffffffffffffffff1681526020019081526020016000206000828254610ac091906131a8565b9250508190555082935050505095945050505050565b610ae7610ae16117b1565b82611928565b610b26576040517f08c379a0000000000000000000000000000000000000000000000000000000008152600401610b1d90613059565b60405180910390fd5b610b31838383611a06565b505050565b610b51838383604051806020016040528060008152506111db565b505050565b6000600c60003373ffffffffffffffffffffffffffffffffffffffff1673ffffffffffffffffffffffffffffffffffffffff1681526020019081526020016000205490503373ffffffffffffffffffffffffffffffffffffffff166108fc829081150290604051600060405180830381858888f19350505050158015610be0573d6000803e3d6000fd5b506000600c60003373ffffffffffffffffffffffffffffffffffffffff1673ffffffffffffffffffffffffffffffffffffffff1681526020019081526020016000208190555050565b610c316117b1565b73ffffffffffffffffffffffffffffffffffffffff16610c4f610f51565b73ffffffffffffffffffffffffffffffffffffffff1614610ca5576040517f08c379a0000000000000000000000000000000000000000000000000000000008152600401610c9c90612fb9565b60405180910390fd5b600b60009054906101000a900460ff1615600b60006101000a81548160ff021916908315150217905550565b6000806002600084815260200190815260200160002060009054906101000a900473ffffffffffffffffffffffffffffffffffffffff169050600073ffffffffffffffffffffffffffffffffffffffff168173ffffffffffffffffffffffffffffffffffffffff161415610d7a576040517f08c379a0000000000000000000000000000000000000000000000000000000008152600401610d7190612f19565b60405180910390fd5b80915050919050565b60008073ffffffffffffffffffffffffffffffffffffffff168273ffffffffffffffffffffffffffffffffffffffff161415610df4576040517f08c379a0000000000000000000000000000000000000000000000000000000008152600401610deb90612ef9565b60405180910390fd5b600360008373ffffffffffffffffffffffffffffffffffffffff1673ffffffffffffffffffffffffffffffffffffffff168152602001908152602001600020549050919050565b610e436117b1565b73ffffffffffffffffffffffffffffffffffffffff16610e61610f51565b73ffffffffffffffffffffffffffffffffffffffff1614610eb7576040517f08c379a0000000000000000000000000000000000000000000000000000000008152600401610eae90612fb9565b60405180910390fd5b610ec16000611c62565b565b610ecb6117b1565b73ffffffffffffffffffffffffffffffffffffffff16610ee9610f51565b73ffffffffffffffffffffffffffffffffffffffff1614610f3f576040517f08c379a0000000000000000000000000000000000000000000000000000000008152600401610f3690612fb9565b60405180910390fd5b81600881905550806009819055505050565b6000600760009054906101000a900473ffffffffffffffffffffffffffffffffffffffff16905090565b606060018054610f8a90613373565b80601f0160208091040260200160405190810160405280929190818152602001828054610fb690613373565b80156110035780601f10610fd857610100808354040283529160200191611003565b820191906000526020600020905b815481529060010190602001808311610fe657829003601f168201915b5050505050905090565b6000600c60003373ffffffffffffffffffffffffffffffffffffffff1673ffffffffffffffffffffffffffffffffffffffff16815260200190815260200160002054905090565b61105c6117b1565b73ffffffffffffffffffffffffffffffffffffffff168273ffffffffffffffffffffffffffffffffffffffff1614156110ca576040517f08c379a00000000000000000000000000000000000000000000000000000000081526004016110c190612e99565b60405180910390fd5b80600560006110d76117b1565b73ffffffffffffffffffffffffffffffffffffffff1673ffffffffffffffffffffffffffffffffffffffff16815260200190815260200160002060008473ffffffffffffffffffffffffffffffffffffffff1673ffffffffffffffffffffffffffffffffffffffff16815260200190815260200160002060006101000a81548160ff0219169083151502179055508173ffffffffffffffffffffffffffffffffffffffff166111846117b1565b73ffffffffffffffffffffffffffffffffffffffff167f17307eab39ab6107e8899845ad3d59bd9653f200f220920489ca2b5937696c31836040516111c99190612ddc565b60405180910390a35050565b60085481565b6111ec6111e66117b1565b83611928565b61122b576040517f08c379a000000000000000000000000000000000000000000000000000000000815260040161122290613059565b60405180910390fd5b61123784848484611d28565b50505050565b606061124882611745565b611287576040517f08c379a000000000000000000000000000000000000000000000000000000000815260040161127e90612f79565b60405180910390fd5b60006006600084815260200190815260200160002080546112a790613373565b80601f01602080910402602001604051908101604052809291908181526020018280546112d390613373565b80156113205780601f106112f557610100808354040283529160200191611320565b820191906000526020600020905b81548152906001019060200180831161130357829003601f168201915b505050505090506000611331611d84565b905060008151141561134757819250505061138a565b60008251111561137c578082604051602001611364929190612d2f565b6040516020818303038152906040529250505061138a565b61138584611d9b565b925050505b919050565b6060600d60003373ffffffffffffffffffffffffffffffffffffffff1673ffffffffffffffffffffffffffffffffffffffff168152602001908152602001600020805480602002602001604051908101604052809291908181526020016000905b82821015611546578382906000526020600020906002020160405180604001604052908160008201805461142390613373565b80601f016020809104026020016040519081016040528092919081815260200182805461144f90613373565b801561149c5780601f106114715761010080835404028352916020019161149c565b820191906000526020600020905b81548152906001019060200180831161147f57829003601f168201915b505050505081526020016001820180546114b590613373565b80601f01602080910402602001604051908101604052809291908181526020018280546114e190613373565b801561152e5780601f106115035761010080835404028352916020019161152e565b820191906000526020600020905b81548152906001019060200180831161151157829003601f168201915b505050505081525050815260200190600101906113f0565b50505050905090565b6000600560008473ffffffffffffffffffffffffffffffffffffffff1673ffffffffffffffffffffffffffffffffffffffff16815260200190815260200160002060008373ffffffffffffffffffffffffffffffffffffffff1673ffffffffffffffffffffffffffffffffffffffff16815260200190815260200160002060009054906101000a900460ff16905092915050565b6115eb6117b1565b73ffffffffffffffffffffffffffffffffffffffff16611609610f51565b73ffffffffffffffffffffffffffffffffffffffff161461165f576040517f08c379a000000000000000000000000000000000000000000000000000000000815260040161165690612fb9565b60405180910390fd5b600073ffffffffffffffffffffffffffffffffffffffff168173ffffffffffffffffffffffffffffffffffffffff1614156116cf576040517f08c379a00000000000000000000000000000000000000000000000000000000081526004016116c690612e39565b60405180910390fd5b6116d881611c62565b50565b60007f01ffc9a7000000000000000000000000000000000000000000000000000000007bffffffffffffffffffffffffffffffffffffffffffffffffffffffff1916827bffffffffffffffffffffffffffffffffffffffffffffffffffffffff1916149050919050565b60008073ffffffffffffffffffffffffffffffffffffffff166002600084815260200190815260200160002060009054906101000a900473ffffffffffffffffffffffffffffffffffffffff1673ffffffffffffffffffffffffffffffffffffffff1614159050919050565b600033905090565b816004600083815260200190815260200160002060006101000a81548173ffffffffffffffffffffffffffffffffffffffff021916908373ffffffffffffffffffffffffffffffffffffffff160217905550808273ffffffffffffffffffffffffffffffffffffffff1661182c83610cd1565b73ffffffffffffffffffffffffffffffffffffffff167f8c5be1e5ebec7d5bd14f71427d1e84f3dd0314c0f7b2291e5b200ac8c7c3b92560405160405180910390a45050565b600081600001549050919050565b61189a828260405180602001604052806000815250611e42565b5050565b6118a782611745565b6118e6576040517f08c379a00000000000000000000000000000000000000000000000000000000081526004016118dd90612f39565b60405180910390fd5b8060066000848152602001908152602001600020908051906020019061190d9291906123c7565b505050565b6001816000016000828254019250508190555050565b600061193382611745565b611972576040517f08c379a000000000000000000000000000000000000000000000000000000000815260040161196990612eb9565b60405180910390fd5b600061197d83610cd1565b90508073ffffffffffffffffffffffffffffffffffffffff168473ffffffffffffffffffffffffffffffffffffffff1614806119ec57508373ffffffffffffffffffffffffffffffffffffffff166119d4846106f3565b73ffffffffffffffffffffffffffffffffffffffff16145b806119fd57506119fc818561154f565b5b91505092915050565b8273ffffffffffffffffffffffffffffffffffffffff16611a2682610cd1565b73ffffffffffffffffffffffffffffffffffffffff1614611a7c576040517f08c379a0000000000000000000000000000000000000000000000000000000008152600401611a7390612fd9565b60405180910390fd5b600073ffffffffffffffffffffffffffffffffffffffff168273ffffffffffffffffffffffffffffffffffffffff161415611aec576040517f08c379a0000000000000000000000000000000000000000000000000000000008152600401611ae390612e79565b60405180910390fd5b611af7838383611e9d565b611b026000826117b9565b6001600360008573ffffffffffffffffffffffffffffffffffffffff1673ffffffffffffffffffffffffffffffffffffffff1681526020019081526020016000206000828254611b529190613289565b925050819055506001600360008473ffffffffffffffffffffffffffffffffffffffff1673ffffffffffffffffffffffffffffffffffffffff1681526020019081526020016000206000828254611ba991906131a8565b92505081905550816002600083815260200190815260200160002060006101000a81548173ffffffffffffffffffffffffffffffffffffffff021916908373ffffffffffffffffffffffffffffffffffffffff160217905550808273ffffffffffffffffffffffffffffffffffffffff168473ffffffffffffffffffffffffffffffffffffffff167fddf252ad1be2c89b69c2b068fc378daa952ba7f163c4a11628f55a4df523b3ef60405160405180910390a4505050565b6000600760009054906101000a900473ffffffffffffffffffffffffffffffffffffffff16905081600760006101000a81548173ffffffffffffffffffffffffffffffffffffffff021916908373ffffffffffffffffffffffffffffffffffffffff1602179055508173ffffffffffffffffffffffffffffffffffffffff168173ffffffffffffffffffffffffffffffffffffffff167f8be0079c531659141344cd1fd0a4f28419497f9722a3daafe3b4186f6b6457e060405160405180910390a35050565b611d33848484611a06565b611d3f84848484611ea2565b611d7e576040517f08c379a0000000000000000000000000000000000000000000000000000000008152600401611d7590612e19565b60405180910390fd5b50505050565b606060405180602001604052806000815250905090565b6060611da682611745565b611de5576040517f08c379a0000000000000000000000000000000000000000000000000000000008152600401611ddc90612ff9565b60405180910390fd5b6000611def611d84565b90506000815111611e0f5760405180602001604052806000815250611e3a565b80611e1984612039565b604051602001611e2a929190612d2f565b6040516020818303038152906040525b915050919050565b611e4c83836121e6565b611e596000848484611ea2565b611e98576040517f08c379a0000000000000000000000000000000000000000000000000000000008152600401611e8f90612e19565b60405180910390fd5b505050565b505050565b6000611ec38473ffffffffffffffffffffffffffffffffffffffff166123b4565b1561202c578373ffffffffffffffffffffffffffffffffffffffff1663150b7a02611eec6117b1565b8786866040518563ffffffff1660e01b8152600401611f0e9493929190612d6e565b602060405180830381600087803b158015611f2857600080fd5b505af1925050508015611f5957506040513d601f19601f82011682018060405250810190611f569190612832565b60015b611fdc573d8060008114611f89576040519150601f19603f3d011682016040523d82523d6000602084013e611f8e565b606091505b50600081511415611fd4576040517f08c379a0000000000000000000000000000000000000000000000000000000008152600401611fcb90612e19565b60405180910390fd5b805181602001fd5b63150b7a0260e01b7bffffffffffffffffffffffffffffffffffffffffffffffffffffffff1916817bffffffffffffffffffffffffffffffffffffffffffffffffffffffff191614915050612031565b600190505b949350505050565b60606000821415612081576040518060400160405280600181526020017f300000000000000000000000000000000000000000000000000000000000000081525090506121e1565b600082905060005b600082146120b357808061209c906133d6565b915050600a826120ac91906131fe565b9150612089565b60008167ffffffffffffffff8111156120f5577f4e487b7100000000000000000000000000000000000000000000000000000000600052604160045260246000fd5b6040519080825280601f01601f1916602001820160405280156121275781602001600182028036833780820191505090505b5090505b600085146121da576001826121409190613289565b9150600a8561214f919061341f565b603061215b91906131a8565b60f81b818381518110612197577f4e487b7100000000000000000000000000000000000000000000000000000000600052603260045260246000fd5b60200101907effffffffffffffffffffffffffffffffffffffffffffffffffffffffffffff1916908160001a905350600a856121d391906131fe565b945061212b565b8093505050505b919050565b600073ffffffffffffffffffffffffffffffffffffffff168273ffffffffffffffffffffffffffffffffffffffff161415612256576040517f08c379a000000000000000000000000000000000000000000000000000000000815260040161224d90612f59565b60405180910390fd5b61225f81611745565b1561229f576040517f08c379a000000000000000000000000000000000000000000000000000000000815260040161229690612e59565b60405180910390fd5b6122ab60008383611e9d565b6001600360008473ffffffffffffffffffffffffffffffffffffffff1673ffffffffffffffffffffffffffffffffffffffff16815260200190815260200160002060008282546122fb91906131a8565b92505081905550816002600083815260200190815260200160002060006101000a81548173ffffffffffffffffffffffffffffffffffffffff021916908373ffffffffffffffffffffffffffffffffffffffff160217905550808273ffffffffffffffffffffffffffffffffffffffff16600073ffffffffffffffffffffffffffffffffffffffff167fddf252ad1be2c89b69c2b068fc378daa952ba7f163c4a11628f55a4df523b3ef60405160405180910390a45050565b600080823b905060008111915050919050565b8280546123d390613373565b90600052602060002090601f0160209004810192826123f5576000855561243c565b82601f1061240e57805160ff191683800117855561243c565b8280016001018555821561243c579182015b8281111561243b578251825591602001919060010190612420565b5b509050612449919061244d565b5090565b5b8082111561246657600081600090555060010161244e565b5090565b600061247d612478846130b9565b613094565b90508281526020810184848401111561249557600080fd5b6124a0848285613331565b509392505050565b60006124bb6124b6846130ea565b613094565b9050828152602081018484840111156124d357600080fd5b6124de848285613331565b509392505050565b6000813590506124f581613a3c565b92915050565b60008135905061250a81613a53565b92915050565b60008135905061251f81613a6a565b92915050565b60008151905061253481613a6a565b92915050565b600082601f83011261254b57600080fd5b813561255b84826020860161246a565b91505092915050565b600082601f83011261257557600080fd5b81356125858482602086016124a8565b91505092915050565b60008135905061259d81613a81565b92915050565b6000602082840312156125b557600080fd5b60006125c3848285016124e6565b91505092915050565b600080604083850312156125df57600080fd5b60006125ed858286016124e6565b92505060206125fe858286016124e6565b9150509250929050565b60008060006060848603121561261d57600080fd5b600061262b868287016124e6565b935050602061263c868287016124e6565b925050604061264d8682870161258e565b9150509250925092565b6000806000806080858703121561266d57600080fd5b600061267b878288016124e6565b945050602061268c878288016124e6565b935050604061269d8782880161258e565b925050606085013567ffffffffffffffff8111156126ba57600080fd5b6126c68782880161253a565b91505092959194509250565b600080604083850312156126e557600080fd5b60006126f3858286016124e6565b9250506020612704858286016124fb565b9150509250929050565b600080600080600060a0868803121561272657600080fd5b6000612734888289016124e6565b955050602086013567ffffffffffffffff81111561275157600080fd5b61275d88828901612564565b945050604086013567ffffffffffffffff81111561277a57600080fd5b61278688828901612564565b935050606086013567ffffffffffffffff8111156127a357600080fd5b6127af88828901612564565b92505060806127c08882890161258e565b9150509295509295909350565b600080604083850312156127e057600080fd5b60006127ee858286016124e6565b92505060206127ff8582860161258e565b9150509250929050565b60006020828403121561281b57600080fd5b600061282984828501612510565b91505092915050565b60006020828403121561284457600080fd5b600061285284828501612525565b91505092915050565b60006020828403121561286d57600080fd5b600061287b8482850161258e565b91505092915050565b6000806040838503121561289757600080fd5b60006128a58582860161258e565b92505060206128b68582860161258e565b9150509250929050565b60006128cc8383612cdc565b905092915050565b6128dd816132bd565b82525050565b60006128ee8261312b565b6128f88185613159565b93508360208202850161290a8561311b565b8060005b85811015612946578484038952815161292785826128c0565b94506129328361314c565b925060208a0199505060018101905061290e565b50829750879550505050505092915050565b612961816132cf565b82525050565b600061297282613136565b61297c818561316a565b935061298c818560208601613340565b6129958161350c565b840191505092915050565b60006129ab82613141565b6129b5818561317b565b93506129c5818560208601613340565b6129ce8161350c565b840191505092915050565b60006129e482613141565b6129ee818561318c565b93506129fe818560208601613340565b612a078161350c565b840191505092915050565b6000612a1d82613141565b612a27818561319d565b9350612a37818560208601613340565b80840191505092915050565b6000612a5060328361318c565b9150612a5b8261351d565b604082019050919050565b6000612a7360268361318c565b9150612a7e8261356c565b604082019050919050565b6000612a96601c8361318c565b9150612aa1826135bb565b602082019050919050565b6000612ab960248361318c565b9150612ac4826135e4565b604082019050919050565b6000612adc60198361318c565b9150612ae782613633565b602082019050919050565b6000612aff602c8361318c565b9150612b0a8261365c565b604082019050919050565b6000612b2260388361318c565b9150612b2d826136ab565b604082019050919050565b6000612b45602a8361318c565b9150612b50826136fa565b604082019050919050565b6000612b6860298361318c565b9150612b7382613749565b604082019050919050565b6000612b8b602e8361318c565b9150612b9682613798565b604082019050919050565b6000612bae60208361318c565b9150612bb9826137e7565b602082019050919050565b6000612bd160318361318c565b9150612bdc82613810565b604082019050919050565b6000612bf4602c8361318c565b9150612bff8261385f565b604082019050919050565b6000612c1760208361318c565b9150612c22826138ae565b602082019050919050565b6000612c3a60298361318c565b9150612c45826138d7565b604082019050919050565b6000612c5d602f8361318c565b9150612c6882613926565b604082019050919050565b6000612c8060218361318c565b9150612c8b82613975565b604082019050919050565b6000612ca360138361318c565b9150612cae826139c4565b602082019050919050565b6000612cc660318361318c565b9150612cd1826139ed565b604082019050919050565b60006040830160008301518482036000860152612cf982826129a0565b91505060208301518482036020860152612d1382826129a0565b9150508091505092915050565b612d2981613327565b82525050565b6000612d3b8285612a12565b9150612d478284612a12565b91508190509392505050565b6000602082019050612d6860008301846128d4565b92915050565b6000608082019050612d8360008301876128d4565b612d9060208301866128d4565b612d9d6040830185612d20565b8181036060830152612daf8184612967565b905095945050505050565b60006020820190508181036000830152612dd481846128e3565b905092915050565b6000602082019050612df16000830184612958565b92915050565b60006020820190508181036000830152612e1181846129d9565b905092915050565b60006020820190508181036000830152612e3281612a43565b9050919050565b60006020820190508181036000830152612e5281612a66565b9050919050565b60006020820190508181036000830152612e7281612a89565b9050919050565b60006020820190508181036000830152612e9281612aac565b9050919050565b60006020820190508181036000830152612eb281612acf565b9050919050565b60006020820190508181036000830152612ed281612af2565b9050919050565b60006020820190508181036000830152612ef281612b15565b9050919050565b60006020820190508181036000830152612f1281612b38565b9050919050565b60006020820190508181036000830152612f3281612b5b565b9050919050565b60006020820190508181036000830152612f5281612b7e565b9050919050565b60006020820190508181036000830152612f7281612ba1565b9050919050565b60006020820190508181036000830152612f9281612bc4565b9050919050565b60006020820190508181036000830152612fb281612be7565b9050919050565b60006020820190508181036000830152612fd281612c0a565b9050919050565b60006020820190508181036000830152612ff281612c2d565b9050919050565b6000602082019050818103600083015261301281612c50565b9050919050565b6000602082019050818103600083015261303281612c73565b9050919050565b6000602082019050818103600083015261305281612c96565b9050919050565b6000602082019050818103600083015261307281612cb9565b9050919050565b600060208201905061308e6000830184612d20565b92915050565b600061309e6130af565b90506130aa82826133a5565b919050565b6000604051905090565b600067ffffffffffffffff8211156130d4576130d36134dd565b5b6130dd8261350c565b9050602081019050919050565b600067ffffffffffffffff821115613105576131046134dd565b5b61310e8261350c565b9050602081019050919050565b6000819050602082019050919050565b600081519050919050565b600081519050919050565b600081519050919050565b6000602082019050919050565b600082825260208201905092915050565b600082825260208201905092915050565b600082825260208201905092915050565b600082825260208201905092915050565b600081905092915050565b60006131b382613327565b91506131be83613327565b9250827fffffffffffffffffffffffffffffffffffffffffffffffffffffffffffffffff038211156131f3576131f2613450565b5b828201905092915050565b600061320982613327565b915061321483613327565b9250826132245761322361347f565b5b828204905092915050565b600061323a82613327565b915061324583613327565b9250817fffffffffffffffffffffffffffffffffffffffffffffffffffffffffffffffff048311821515161561327e5761327d613450565b5b828202905092915050565b600061329482613327565b915061329f83613327565b9250828210156132b2576132b1613450565b5b828203905092915050565b60006132c882613307565b9050919050565b60008115159050919050565b60007fffffffff0000000000000000000000000000000000000000000000000000000082169050919050565b600073ffffffffffffffffffffffffffffffffffffffff82169050919050565b6000819050919050565b82818337600083830152505050565b60005b8381101561335e578082015181840152602081019050613343565b8381111561336d576000848401525b50505050565b6000600282049050600182168061338b57607f821691505b6020821081141561339f5761339e6134ae565b5b50919050565b6133ae8261350c565b810181811067ffffffffffffffff821117156133cd576133cc6134dd565b5b80604052505050565b60006133e182613327565b91507fffffffffffffffffffffffffffffffffffffffffffffffffffffffffffffffff82141561341457613413613450565b5b600182019050919050565b600061342a82613327565b915061343583613327565b9250826134455761344461347f565b5b828206905092915050565b7f4e487b7100000000000000000000000000000000000000000000000000000000600052601160045260246000fd5b7f4e487b7100000000000000000000000000000000000000000000000000000000600052601260045260246000fd5b7f4e487b7100000000000000000000000000000000000000000000000000000000600052602260045260246000fd5b7f4e487b7100000000000000000000000000000000000000000000000000000000600052604160045260246000fd5b6000601f19601f8301169050919050565b7f4552433732313a207472616e7366657220746f206e6f6e20455243373231526560008201527f63656976657220696d706c656d656e7465720000000000000000000000000000602082015250565b7f4f776e61626c653a206e6577206f776e657220697320746865207a65726f206160008201527f6464726573730000000000000000000000000000000000000000000000000000602082015250565b7f4552433732313a20746f6b656e20616c7265616479206d696e74656400000000600082015250565b7f4552433732313a207472616e7366657220746f20746865207a65726f2061646460008201527f7265737300000000000000000000000000000000000000000000000000000000602082015250565b7f4552433732313a20617070726f766520746f2063616c6c657200000000000000600082015250565b7f4552433732313a206f70657261746f7220717565727920666f72206e6f6e657860008201527f697374656e7420746f6b656e0000000000000000000000000000000000000000602082015250565b7f4552433732313a20617070726f76652063616c6c6572206973206e6f74206f7760008201527f6e6572206e6f7220617070726f76656420666f7220616c6c0000000000000000602082015250565b7f4552433732313a2062616c616e636520717565727920666f7220746865207a6560008201527f726f206164647265737300000000000000000000000000000000000000000000602082015250565b7f4552433732313a206f776e657220717565727920666f72206e6f6e657869737460008201527f656e7420746f6b656e0000000000000000000000000000000000000000000000602082015250565b7f45524337323155524953746f726167653a2055524920736574206f66206e6f6e60008201527f6578697374656e7420746f6b656e000000000000000000000000000000000000602082015250565b7f4552433732313a206d696e7420746f20746865207a65726f2061646472657373600082015250565b7f45524337323155524953746f726167653a2055524920717565727920666f722060008201527f6e6f6e6578697374656e7420746f6b656e000000000000000000000000000000602082015250565b7f4552433732313a20617070726f76656420717565727920666f72206e6f6e657860008201527f697374656e7420746f6b656e0000000000000000000000000000000000000000602082015250565b7f4f776e61626c653a2063616c6c6572206973206e6f7420746865206f776e6572600082015250565b7f4552433732313a207472616e73666572206f6620746f6b656e2074686174206960008201527f73206e6f74206f776e0000000000000000000000000000000000000000000000602082015250565b7f4552433732314d657461646174613a2055524920717565727920666f72206e6f60008201527f6e6578697374656e7420746f6b656e0000000000000000000000000000000000602082015250565b7f4552433732313a20617070726f76616c20746f2063757272656e74206f776e6560008201527f7200000000000000000000000000000000000000000000000000000000000000602082015250565b7f53657276696365206e6f742072756e6e696e6700000000000000000000000000600082015250565b7f4552433732313a207472616e736665722063616c6c6572206973206e6f74206f60008201527f776e6572206e6f7220617070726f766564000000000000000000000000000000602082015250565b613a45816132bd565b8114613a5057600080fd5b50565b613a5c816132cf565b8114613a6757600080fd5b50565b613a73816132db565b8114613a7e57600080fd5b50565b613a8a81613327565b8114613a9557600080fd5b5056fea2646970667358221220458a1e45035da3b11b17828fce48f2ed663c20494ce1a41eb8b2ee91c8e46ebe64736f6c63430008040033",
  "linkReferences": {},
  "deployedLinkReferences": {}
}