{
  "_format": "hh-sol-artifact-1",
  "contractName": "Polytix",
  "sourceName": "contracts/Polytix.sol",
  "abi": [
    {
      "inputs": [],
      "stateMutability": "nonpayable",
      "type": "constructor"
    },
    {
      "anonymous": false,
      "inputs": [
        {
          "indexed": true,
          "internalType": "address",
          "name": "owner",
          "type": "address"
        },
        {
          "indexed": true,
          "internalType": "address",
          "name": "approved",
          "type": "address"
        },
        {
          "indexed": true,
          "internalType": "uint256",
          "name": "tokenId",
          "type": "uint256"
        }
      ],
      "name": "Approval",
      "type": "event"
    },
    {
      "anonymous": false,
      "inputs": [
        {
          "indexed": true,
          "internalType": "address",
          "name": "owner",
          "type": "address"
        },
        {
          "indexed": true,
          "internalType": "address",
          "name": "operator",
          "type": "address"
        },
        {
          "indexed": false,
          "internalType": "bool",
          "name": "approved",
          "type": "bool"
        }
      ],
      "name": "ApprovalForAll",
      "type": "event"
    },
    {
      "anonymous": false,
      "inputs": [
        {
          "indexed": true,
          "internalType": "address",
          "name": "previousOwner",
          "type": "address"
        },
        {
          "indexed": true,
          "internalType": "address",
          "name": "newOwner",
          "type": "address"
        }
      ],
      "name": "OwnershipTransferred",
      "type": "event"
    },
    {
      "anonymous": false,
      "inputs": [
        {
          "indexed": true,
          "internalType": "address",
          "name": "from",
          "type": "address"
        },
        {
          "indexed": true,
          "internalType": "address",
          "name": "to",
          "type": "address"
        },
        {
          "indexed": true,
          "internalType": "uint256",
          "name": "tokenId",
          "type": "uint256"
        }
      ],
      "name": "Transfer",
      "type": "event"
    },
    {
      "inputs": [],
      "name": "_claims",
      "outputs": [
        {
          "internalType": "uint256",
          "name": "",
          "type": "uint256"
        }
      ],
      "stateMutability": "view",
      "type": "function"
    },
    {
      "inputs": [],
      "name": "_toggleMinting",
      "outputs": [],
      "stateMutability": "nonpayable",
      "type": "function"
    },
    {
      "inputs": [
        {
          "internalType": "address",
          "name": "to",
          "type": "address"
        },
        {
          "internalType": "uint256",
          "name": "tokenId",
          "type": "uint256"
        }
      ],
      "name": "approve",
      "outputs": [],
      "stateMutability": "nonpayable",
      "type": "function"
    },
    {
      "inputs": [
        {
          "internalType": "address",
          "name": "owner",
          "type": "address"
        }
      ],
      "name": "balanceOf",
      "outputs": [
        {
          "internalType": "uint256",
          "name": "",
          "type": "uint256"
        }
      ],
      "stateMutability": "view",
      "type": "function"
    },
    {
      "inputs": [
        {
          "internalType": "uint256",
          "name": "tokenId",
          "type": "uint256"
        }
      ],
      "name": "getApproved",
      "outputs": [
        {
          "internalType": "address",
          "name": "",
          "type": "address"
        }
      ],
      "stateMutability": "view",
      "type": "function"
    },
    {
      "inputs": [
        {
          "internalType": "address",
          "name": "eventOwner",
          "type": "address"
        },
        {
          "internalType": "string",
          "name": "tokenMetadata",
          "type": "string"
        }
      ],
      "name": "getTix",
      "outputs": [],
      "stateMutability": "payable",
      "type": "function"
    },
    {
      "inputs": [
        {
          "internalType": "address",
          "name": "owner",
          "type": "address"
        },
        {
          "internalType": "address",
          "name": "operator",
          "type": "address"
        }
      ],
      "name": "isApprovedForAll",
      "outputs": [
        {
          "internalType": "bool",
          "name": "",
          "type": "bool"
        }
      ],
      "stateMutability": "view",
      "type": "function"
    },
    {
      "inputs": [],
      "name": "name",
      "outputs": [
        {
          "internalType": "string",
          "name": "",
          "type": "string"
        }
      ],
      "stateMutability": "view",
      "type": "function"
    },
    {
      "inputs": [],
      "name": "owner",
      "outputs": [
        {
          "internalType": "address",
          "name": "",
          "type": "address"
        }
      ],
      "stateMutability": "view",
      "type": "function"
    },
    {
      "inputs": [
        {
          "internalType": "uint256",
          "name": "tokenId",
          "type": "uint256"
        }
      ],
      "name": "ownerOf",
      "outputs": [
        {
          "internalType": "address",
          "name": "",
          "type": "address"
        }
      ],
      "stateMutability": "view",
      "type": "function"
    },
    {
      "inputs": [],
      "name": "renounceOwnership",
      "outputs": [],
      "stateMutability": "nonpayable",
      "type": "function"
    },
    {
      "inputs": [
        {
          "internalType": "address",
          "name": "from",
          "type": "address"
        },
        {
          "internalType": "address",
          "name": "to",
          "type": "address"
        },
        {
          "internalType": "uint256",
          "name": "tokenId",
          "type": "uint256"
        }
      ],
      "name": "safeTransferFrom",
      "outputs": [],
      "stateMutability": "nonpayable",
      "type": "function"
    },
    {
      "inputs": [
        {
          "internalType": "address",
          "name": "from",
          "type": "address"
        },
        {
          "internalType": "address",
          "name": "to",
          "type": "address"
        },
        {
          "internalType": "uint256",
          "name": "tokenId",
          "type": "uint256"
        },
        {
          "internalType": "bytes",
          "name": "_data",
          "type": "bytes"
        }
      ],
      "name": "safeTransferFrom",
      "outputs": [],
      "stateMutability": "nonpayable",
      "type": "function"
    },
    {
      "inputs": [
        {
          "internalType": "address",
          "name": "operator",
          "type": "address"
        },
        {
          "internalType": "bool",
          "name": "approved",
          "type": "bool"
        }
      ],
      "name": "setApprovalForAll",
      "outputs": [],
      "stateMutability": "nonpayable",
      "type": "function"
    },
    {
      "inputs": [
        {
          "internalType": "bytes4",
          "name": "interfaceId",
          "type": "bytes4"
        }
      ],
      "name": "supportsInterface",
      "outputs": [
        {
          "internalType": "bool",
          "name": "",
          "type": "bool"
        }
      ],
      "stateMutability": "view",
      "type": "function"
    },
    {
      "inputs": [],
      "name": "symbol",
      "outputs": [
        {
          "internalType": "string",
          "name": "",
          "type": "string"
        }
      ],
      "stateMutability": "view",
      "type": "function"
    },
    {
      "inputs": [
        {
          "internalType": "uint256",
          "name": "tokenId",
          "type": "uint256"
        }
      ],
      "name": "tokenURI",
      "outputs": [
        {
          "internalType": "string",
          "name": "",
          "type": "string"
        }
      ],
      "stateMutability": "view",
      "type": "function"
    },
    {
      "inputs": [
        {
          "internalType": "address",
          "name": "from",
          "type": "address"
        },
        {
          "internalType": "address",
          "name": "to",
          "type": "address"
        },
        {
          "internalType": "uint256",
          "name": "tokenId",
          "type": "uint256"
        }
      ],
      "name": "transferFrom",
      "outputs": [],
      "stateMutability": "nonpayable",
      "type": "function"
    },
    {
      "inputs": [
        {
          "internalType": "address",
          "name": "newOwner",
          "type": "address"
        }
      ],
      "name": "transferOwnership",
      "outputs": [],
      "stateMutability": "nonpayable",
      "type": "function"
    },
    {
      "inputs": [],
      "name": "widthdraw",
      "outputs": [],
      "stateMutability": "nonpayable",
      "type": "function"
    }
  ],
  "bytecode": "0x60806040526000600960006101000a81548160ff0219169083151502179055503480156200002c57600080fd5b506040518060400160405280600881526020017f4d657461706173730000000000000000000000000000000000000000000000008152506040518060400160405280600381526020017f4d504100000000000000000000000000000000000000000000000000000000008152508160009080519060200190620000b1929190620001c1565b508060019080519060200190620000ca929190620001c1565b505050620000ed620000e1620000f360201b60201c565b620000fb60201b60201c565b620002d6565b600033905090565b6000600760009054906101000a900473ffffffffffffffffffffffffffffffffffffffff16905081600760006101000a81548173ffffffffffffffffffffffffffffffffffffffff021916908373ffffffffffffffffffffffffffffffffffffffff1602179055508173ffffffffffffffffffffffffffffffffffffffff168173ffffffffffffffffffffffffffffffffffffffff167f8be0079c531659141344cd1fd0a4f28419497f9722a3daafe3b4186f6b6457e060405160405180910390a35050565b828054620001cf9062000271565b90600052602060002090601f016020900481019282620001f357600085556200023f565b82601f106200020e57805160ff19168380011785556200023f565b828001600101855582156200023f579182015b828111156200023e57825182559160200191906001019062000221565b5b5090506200024e919062000252565b5090565b5b808211156200026d57600081600090555060010162000253565b5090565b600060028204905060018216806200028a57607f821691505b60208210811415620002a157620002a0620002a7565b5b50919050565b7f4e487b7100000000000000000000000000000000000000000000000000000000600052602260045260246000fd5b6133b780620002e66000396000f3fe60806040526004361061011f5760003560e01c806370a08231116100a0578063a22cb46511610064578063a22cb465146103a0578063b88d4fde146103c9578063c87b56dd146103f2578063e985e9c51461042f578063f2fde38b1461046c5761011f565b806370a08231146102cb578063715018a6146103085780638da5cb5b1461031f57806395d89b411461034a578063a1b1a981146103755761011f565b806323c82d00116100e757806323c82d001461021b57806342842e0e1461023757806352b50a2a1461026057806354b3f266146102775780636352211e1461028e5761011f565b806301ffc9a71461012457806306fdde0314610161578063081812fc1461018c578063095ea7b3146101c957806323b872dd146101f2575b600080fd5b34801561013057600080fd5b5061014b600480360381019061014691906122fa565b610495565b6040516101589190612769565b60405180910390f35b34801561016d57600080fd5b50610176610577565b6040516101839190612784565b60405180910390f35b34801561019857600080fd5b506101b360048036038101906101ae919061234c565b610609565b6040516101c09190612702565b60405180910390f35b3480156101d557600080fd5b506101f060048036038101906101eb91906122be565b61068e565b005b3480156101fe57600080fd5b5061021960048036038101906102149190612164565b6107a6565b005b6102356004803603810190610230919061226a565b610806565b005b34801561024357600080fd5b5061025e60048036038101906102599190612164565b6108e6565b005b34801561026c57600080fd5b50610275610906565b005b34801561028357600080fd5b5061028c6109d9565b005b34801561029a57600080fd5b506102b560048036038101906102b0919061234c565b610a81565b6040516102c29190612702565b60405180910390f35b3480156102d757600080fd5b506102f260048036038101906102ed91906120ff565b610b33565b6040516102ff9190612a06565b60405180910390f35b34801561031457600080fd5b5061031d610beb565b005b34801561032b57600080fd5b50610334610c73565b6040516103419190612702565b60405180910390f35b34801561035657600080fd5b5061035f610c9d565b60405161036c9190612784565b60405180910390f35b34801561038157600080fd5b5061038a610d2f565b6040516103979190612a06565b60405180910390f35b3480156103ac57600080fd5b506103c760048036038101906103c2919061222e565b610d76565b005b3480156103d557600080fd5b506103f060048036038101906103eb91906121b3565b610ef7565b005b3480156103fe57600080fd5b506104196004803603810190610414919061234c565b610f59565b6040516104269190612784565b60405180910390f35b34801561043b57600080fd5b5061045660048036038101906104519190612128565b6110ab565b6040516104639190612769565b60405180910390f35b34801561047857600080fd5b50610493600480360381019061048e91906120ff565b61113f565b005b60007f80ac58cd000000000000000000000000000000000000000000000000000000007bffffffffffffffffffffffffffffffffffffffffffffffffffffffff1916827bffffffffffffffffffffffffffffffffffffffffffffffffffffffff1916148061056057507f5b5e139f000000000000000000000000000000000000000000000000000000007bffffffffffffffffffffffffffffffffffffffffffffffffffffffff1916827bffffffffffffffffffffffffffffffffffffffffffffffffffffffff1916145b80610570575061056f82611237565b5b9050919050565b60606000805461058690612c5c565b80601f01602080910402602001604051908101604052809291908181526020018280546105b290612c5c565b80156105ff5780601f106105d4576101008083540402835291602001916105ff565b820191906000526020600020905b8154815290600101906020018083116105e257829003601f168201915b5050505050905090565b6000610614826112a1565b610653576040517f08c379a000000000000000000000000000000000000000000000000000000000815260040161064a90612926565b60405180910390fd5b6004600083815260200190815260200160002060009054906101000a900473ffffffffffffffffffffffffffffffffffffffff169050919050565b600061069982610a81565b90508073ffffffffffffffffffffffffffffffffffffffff168373ffffffffffffffffffffffffffffffffffffffff16141561070a576040517f08c379a0000000000000000000000000000000000000000000000000000000008152600401610701906129a6565b60405180910390fd5b8073ffffffffffffffffffffffffffffffffffffffff1661072961130d565b73ffffffffffffffffffffffffffffffffffffffff16148061075857506107578161075261130d565b6110ab565b5b610797576040517f08c379a000000000000000000000000000000000000000000000000000000000815260040161078e90612866565b60405180910390fd5b6107a18383611315565b505050565b6107b76107b161130d565b826113ce565b6107f6576040517f08c379a00000000000000000000000000000000000000000000000000000000081526004016107ed906129e6565b60405180910390fd5b6108018383836114ac565b505050565b60011515600960009054906101000a900460ff1615151461085c576040517f08c379a0000000000000000000000000000000000000000000000000000000008152600401610853906129c6565b60405180910390fd5b61086f3361086a6008611708565b611716565b61088261087c6008611708565b82611734565b61088c60086117a8565b34600a60008473ffffffffffffffffffffffffffffffffffffffff1673ffffffffffffffffffffffffffffffffffffffff16815260200190815260200160002060008282546108db9190612aeb565b925050819055505050565b61090183838360405180602001604052806000815250610ef7565b505050565b6000600a60003373ffffffffffffffffffffffffffffffffffffffff1673ffffffffffffffffffffffffffffffffffffffff1681526020019081526020016000205490503373ffffffffffffffffffffffffffffffffffffffff166108fc829081150290604051600060405180830381858888f19350505050158015610990573d6000803e3d6000fd5b506000600a60003373ffffffffffffffffffffffffffffffffffffffff1673ffffffffffffffffffffffffffffffffffffffff1681526020019081526020016000208190555050565b6109e161130d565b73ffffffffffffffffffffffffffffffffffffffff166109ff610c73565b73ffffffffffffffffffffffffffffffffffffffff1614610a55576040517f08c379a0000000000000000000000000000000000000000000000000000000008152600401610a4c90612946565b60405180910390fd5b600960009054906101000a900460ff1615600960006101000a81548160ff021916908315150217905550565b6000806002600084815260200190815260200160002060009054906101000a900473ffffffffffffffffffffffffffffffffffffffff169050600073ffffffffffffffffffffffffffffffffffffffff168173ffffffffffffffffffffffffffffffffffffffff161415610b2a576040517f08c379a0000000000000000000000000000000000000000000000000000000008152600401610b21906128a6565b60405180910390fd5b80915050919050565b60008073ffffffffffffffffffffffffffffffffffffffff168273ffffffffffffffffffffffffffffffffffffffff161415610ba4576040517f08c379a0000000000000000000000000000000000000000000000000000000008152600401610b9b90612886565b60405180910390fd5b600360008373ffffffffffffffffffffffffffffffffffffffff1673ffffffffffffffffffffffffffffffffffffffff168152602001908152602001600020549050919050565b610bf361130d565b73ffffffffffffffffffffffffffffffffffffffff16610c11610c73565b73ffffffffffffffffffffffffffffffffffffffff1614610c67576040517f08c379a0000000000000000000000000000000000000000000000000000000008152600401610c5e90612946565b60405180910390fd5b610c7160006117be565b565b6000600760009054906101000a900473ffffffffffffffffffffffffffffffffffffffff16905090565b606060018054610cac90612c5c565b80601f0160208091040260200160405190810160405280929190818152602001828054610cd890612c5c565b8015610d255780601f10610cfa57610100808354040283529160200191610d25565b820191906000526020600020905b815481529060010190602001808311610d0857829003601f168201915b5050505050905090565b6000600a60003373ffffffffffffffffffffffffffffffffffffffff1673ffffffffffffffffffffffffffffffffffffffff16815260200190815260200160002054905090565b610d7e61130d565b73ffffffffffffffffffffffffffffffffffffffff168273ffffffffffffffffffffffffffffffffffffffff161415610dec576040517f08c379a0000000000000000000000000000000000000000000000000000000008152600401610de390612826565b60405180910390fd5b8060056000610df961130d565b73ffffffffffffffffffffffffffffffffffffffff1673ffffffffffffffffffffffffffffffffffffffff16815260200190815260200160002060008473ffffffffffffffffffffffffffffffffffffffff1673ffffffffffffffffffffffffffffffffffffffff16815260200190815260200160002060006101000a81548160ff0219169083151502179055508173ffffffffffffffffffffffffffffffffffffffff16610ea661130d565b73ffffffffffffffffffffffffffffffffffffffff167f17307eab39ab6107e8899845ad3d59bd9653f200f220920489ca2b5937696c3183604051610eeb9190612769565b60405180910390a35050565b610f08610f0261130d565b836113ce565b610f47576040517f08c379a0000000000000000000000000000000000000000000000000000000008152600401610f3e906129e6565b60405180910390fd5b610f5384848484611884565b50505050565b6060610f64826112a1565b610fa3576040517f08c379a0000000000000000000000000000000000000000000000000000000008152600401610f9a90612906565b60405180910390fd5b6000600660008481526020019081526020016000208054610fc390612c5c565b80601f0160208091040260200160405190810160405280929190818152602001828054610fef90612c5c565b801561103c5780601f106110115761010080835404028352916020019161103c565b820191906000526020600020905b81548152906001019060200180831161101f57829003601f168201915b50505050509050600061104d6118e0565b90506000815114156110635781925050506110a6565b6000825111156110985780826040516020016110809291906126de565b604051602081830303815290604052925050506110a6565b6110a1846118f7565b925050505b919050565b6000600560008473ffffffffffffffffffffffffffffffffffffffff1673ffffffffffffffffffffffffffffffffffffffff16815260200190815260200160002060008373ffffffffffffffffffffffffffffffffffffffff1673ffffffffffffffffffffffffffffffffffffffff16815260200190815260200160002060009054906101000a900460ff16905092915050565b61114761130d565b73ffffffffffffffffffffffffffffffffffffffff16611165610c73565b73ffffffffffffffffffffffffffffffffffffffff16146111bb576040517f08c379a00000000000000000000000000000000000000000000000000000000081526004016111b290612946565b60405180910390fd5b600073ffffffffffffffffffffffffffffffffffffffff168173ffffffffffffffffffffffffffffffffffffffff16141561122b576040517f08c379a0000000000000000000000000000000000000000000000000000000008152600401611222906127c6565b60405180910390fd5b611234816117be565b50565b60007f01ffc9a7000000000000000000000000000000000000000000000000000000007bffffffffffffffffffffffffffffffffffffffffffffffffffffffff1916827bffffffffffffffffffffffffffffffffffffffffffffffffffffffff1916149050919050565b60008073ffffffffffffffffffffffffffffffffffffffff166002600084815260200190815260200160002060009054906101000a900473ffffffffffffffffffffffffffffffffffffffff1673ffffffffffffffffffffffffffffffffffffffff1614159050919050565b600033905090565b816004600083815260200190815260200160002060006101000a81548173ffffffffffffffffffffffffffffffffffffffff021916908373ffffffffffffffffffffffffffffffffffffffff160217905550808273ffffffffffffffffffffffffffffffffffffffff1661138883610a81565b73ffffffffffffffffffffffffffffffffffffffff167f8c5be1e5ebec7d5bd14f71427d1e84f3dd0314c0f7b2291e5b200ac8c7c3b92560405160405180910390a45050565b60006113d9826112a1565b611418576040517f08c379a000000000000000000000000000000000000000000000000000000000815260040161140f90612846565b60405180910390fd5b600061142383610a81565b90508073ffffffffffffffffffffffffffffffffffffffff168473ffffffffffffffffffffffffffffffffffffffff16148061149257508373ffffffffffffffffffffffffffffffffffffffff1661147a84610609565b73ffffffffffffffffffffffffffffffffffffffff16145b806114a357506114a281856110ab565b5b91505092915050565b8273ffffffffffffffffffffffffffffffffffffffff166114cc82610a81565b73ffffffffffffffffffffffffffffffffffffffff1614611522576040517f08c379a000000000000000000000000000000000000000000000000000000000815260040161151990612966565b60405180910390fd5b600073ffffffffffffffffffffffffffffffffffffffff168273ffffffffffffffffffffffffffffffffffffffff161415611592576040517f08c379a000000000000000000000000000000000000000000000000000000000815260040161158990612806565b60405180910390fd5b61159d83838361199e565b6115a8600082611315565b6001600360008573ffffffffffffffffffffffffffffffffffffffff1673ffffffffffffffffffffffffffffffffffffffff16815260200190815260200160002060008282546115f89190612b72565b925050819055506001600360008473ffffffffffffffffffffffffffffffffffffffff1673ffffffffffffffffffffffffffffffffffffffff168152602001908152602001600020600082825461164f9190612aeb565b92505081905550816002600083815260200190815260200160002060006101000a81548173ffffffffffffffffffffffffffffffffffffffff021916908373ffffffffffffffffffffffffffffffffffffffff160217905550808273ffffffffffffffffffffffffffffffffffffffff168473ffffffffffffffffffffffffffffffffffffffff167fddf252ad1be2c89b69c2b068fc378daa952ba7f163c4a11628f55a4df523b3ef60405160405180910390a4505050565b600081600001549050919050565b6117308282604051806020016040528060008152506119a3565b5050565b61173d826112a1565b61177c576040517f08c379a0000000000000000000000000000000000000000000000000000000008152600401611773906128c6565b60405180910390fd5b806006600084815260200190815260200160002090805190602001906117a3929190611f23565b505050565b6001816000016000828254019250508190555050565b6000600760009054906101000a900473ffffffffffffffffffffffffffffffffffffffff16905081600760006101000a81548173ffffffffffffffffffffffffffffffffffffffff021916908373ffffffffffffffffffffffffffffffffffffffff1602179055508173ffffffffffffffffffffffffffffffffffffffff168173ffffffffffffffffffffffffffffffffffffffff167f8be0079c531659141344cd1fd0a4f28419497f9722a3daafe3b4186f6b6457e060405160405180910390a35050565b61188f8484846114ac565b61189b848484846119fe565b6118da576040517f08c379a00000000000000000000000000000000000000000000000000000000081526004016118d1906127a6565b60405180910390fd5b50505050565b606060405180602001604052806000815250905090565b6060611902826112a1565b611941576040517f08c379a000000000000000000000000000000000000000000000000000000000815260040161193890612986565b60405180910390fd5b600061194b6118e0565b9050600081511161196b5760405180602001604052806000815250611996565b8061197584611b95565b6040516020016119869291906126de565b6040516020818303038152906040525b915050919050565b505050565b6119ad8383611d42565b6119ba60008484846119fe565b6119f9576040517f08c379a00000000000000000000000000000000000000000000000000000000081526004016119f0906127a6565b60405180910390fd5b505050565b6000611a1f8473ffffffffffffffffffffffffffffffffffffffff16611f10565b15611b88578373ffffffffffffffffffffffffffffffffffffffff1663150b7a02611a4861130d565b8786866040518563ffffffff1660e01b8152600401611a6a949392919061271d565b602060405180830381600087803b158015611a8457600080fd5b505af1925050508015611ab557506040513d601f19601f82011682018060405250810190611ab29190612323565b60015b611b38573d8060008114611ae5576040519150601f19603f3d011682016040523d82523d6000602084013e611aea565b606091505b50600081511415611b30576040517f08c379a0000000000000000000000000000000000000000000000000000000008152600401611b27906127a6565b60405180910390fd5b805181602001fd5b63150b7a0260e01b7bffffffffffffffffffffffffffffffffffffffffffffffffffffffff1916817bffffffffffffffffffffffffffffffffffffffffffffffffffffffff191614915050611b8d565b600190505b949350505050565b60606000821415611bdd576040518060400160405280600181526020017f30000000000000000000000000000000000000000000000000000000000000008152509050611d3d565b600082905060005b60008214611c0f578080611bf890612cbf565b915050600a82611c089190612b41565b9150611be5565b60008167ffffffffffffffff811115611c51577f4e487b7100000000000000000000000000000000000000000000000000000000600052604160045260246000fd5b6040519080825280601f01601f191660200182016040528015611c835781602001600182028036833780820191505090505b5090505b60008514611d3657600182611c9c9190612b72565b9150600a85611cab9190612d08565b6030611cb79190612aeb565b60f81b818381518110611cf3577f4e487b7100000000000000000000000000000000000000000000000000000000600052603260045260246000fd5b60200101907effffffffffffffffffffffffffffffffffffffffffffffffffffffffffffff1916908160001a905350600a85611d2f9190612b41565b9450611c87565b8093505050505b919050565b600073ffffffffffffffffffffffffffffffffffffffff168273ffffffffffffffffffffffffffffffffffffffff161415611db2576040517f08c379a0000000000000000000000000000000000000000000000000000000008152600401611da9906128e6565b60405180910390fd5b611dbb816112a1565b15611dfb576040517f08c379a0000000000000000000000000000000000000000000000000000000008152600401611df2906127e6565b60405180910390fd5b611e076000838361199e565b6001600360008473ffffffffffffffffffffffffffffffffffffffff1673ffffffffffffffffffffffffffffffffffffffff1681526020019081526020016000206000828254611e579190612aeb565b92505081905550816002600083815260200190815260200160002060006101000a81548173ffffffffffffffffffffffffffffffffffffffff021916908373ffffffffffffffffffffffffffffffffffffffff160217905550808273ffffffffffffffffffffffffffffffffffffffff16600073ffffffffffffffffffffffffffffffffffffffff167fddf252ad1be2c89b69c2b068fc378daa952ba7f163c4a11628f55a4df523b3ef60405160405180910390a45050565b600080823b905060008111915050919050565b828054611f2f90612c5c565b90600052602060002090601f016020900481019282611f515760008555611f98565b82601f10611f6a57805160ff1916838001178555611f98565b82800160010185558215611f98579182015b82811115611f97578251825591602001919060010190611f7c565b5b509050611fa59190611fa9565b5090565b5b80821115611fc2576000816000905550600101611faa565b5090565b6000611fd9611fd484612a46565b612a21565b905082815260208101848484011115611ff157600080fd5b611ffc848285612c1a565b509392505050565b600061201761201284612a77565b612a21565b90508281526020810184848401111561202f57600080fd5b61203a848285612c1a565b509392505050565b60008135905061205181613325565b92915050565b6000813590506120668161333c565b92915050565b60008135905061207b81613353565b92915050565b60008151905061209081613353565b92915050565b600082601f8301126120a757600080fd5b81356120b7848260208601611fc6565b91505092915050565b600082601f8301126120d157600080fd5b81356120e1848260208601612004565b91505092915050565b6000813590506120f98161336a565b92915050565b60006020828403121561211157600080fd5b600061211f84828501612042565b91505092915050565b6000806040838503121561213b57600080fd5b600061214985828601612042565b925050602061215a85828601612042565b9150509250929050565b60008060006060848603121561217957600080fd5b600061218786828701612042565b935050602061219886828701612042565b92505060406121a9868287016120ea565b9150509250925092565b600080600080608085870312156121c957600080fd5b60006121d787828801612042565b94505060206121e887828801612042565b93505060406121f9878288016120ea565b925050606085013567ffffffffffffffff81111561221657600080fd5b61222287828801612096565b91505092959194509250565b6000806040838503121561224157600080fd5b600061224f85828601612042565b925050602061226085828601612057565b9150509250929050565b6000806040838503121561227d57600080fd5b600061228b85828601612042565b925050602083013567ffffffffffffffff8111156122a857600080fd5b6122b4858286016120c0565b9150509250929050565b600080604083850312156122d157600080fd5b60006122df85828601612042565b92505060206122f0858286016120ea565b9150509250929050565b60006020828403121561230c57600080fd5b600061231a8482850161206c565b91505092915050565b60006020828403121561233557600080fd5b600061234384828501612081565b91505092915050565b60006020828403121561235e57600080fd5b600061236c848285016120ea565b91505092915050565b61237e81612ba6565b82525050565b61238d81612bb8565b82525050565b600061239e82612aa8565b6123a88185612abe565b93506123b8818560208601612c29565b6123c181612df5565b840191505092915050565b60006123d782612ab3565b6123e18185612acf565b93506123f1818560208601612c29565b6123fa81612df5565b840191505092915050565b600061241082612ab3565b61241a8185612ae0565b935061242a818560208601612c29565b80840191505092915050565b6000612443603283612acf565b915061244e82612e06565b604082019050919050565b6000612466602683612acf565b915061247182612e55565b604082019050919050565b6000612489601c83612acf565b915061249482612ea4565b602082019050919050565b60006124ac602483612acf565b91506124b782612ecd565b604082019050919050565b60006124cf601983612acf565b91506124da82612f1c565b602082019050919050565b60006124f2602c83612acf565b91506124fd82612f45565b604082019050919050565b6000612515603883612acf565b915061252082612f94565b604082019050919050565b6000612538602a83612acf565b915061254382612fe3565b604082019050919050565b600061255b602983612acf565b915061256682613032565b604082019050919050565b600061257e602e83612acf565b915061258982613081565b604082019050919050565b60006125a1602083612acf565b91506125ac826130d0565b602082019050919050565b60006125c4603183612acf565b91506125cf826130f9565b604082019050919050565b60006125e7602c83612acf565b91506125f282613148565b604082019050919050565b600061260a602083612acf565b915061261582613197565b602082019050919050565b600061262d602983612acf565b9150612638826131c0565b604082019050919050565b6000612650602f83612acf565b915061265b8261320f565b604082019050919050565b6000612673602183612acf565b915061267e8261325e565b604082019050919050565b6000612696601383612acf565b91506126a1826132ad565b602082019050919050565b60006126b9603183612acf565b91506126c4826132d6565b604082019050919050565b6126d881612c10565b82525050565b60006126ea8285612405565b91506126f68284612405565b91508190509392505050565b60006020820190506127176000830184612375565b92915050565b60006080820190506127326000830187612375565b61273f6020830186612375565b61274c60408301856126cf565b818103606083015261275e8184612393565b905095945050505050565b600060208201905061277e6000830184612384565b92915050565b6000602082019050818103600083015261279e81846123cc565b905092915050565b600060208201905081810360008301526127bf81612436565b9050919050565b600060208201905081810360008301526127df81612459565b9050919050565b600060208201905081810360008301526127ff8161247c565b9050919050565b6000602082019050818103600083015261281f8161249f565b9050919050565b6000602082019050818103600083015261283f816124c2565b9050919050565b6000602082019050818103600083015261285f816124e5565b9050919050565b6000602082019050818103600083015261287f81612508565b9050919050565b6000602082019050818103600083015261289f8161252b565b9050919050565b600060208201905081810360008301526128bf8161254e565b9050919050565b600060208201905081810360008301526128df81612571565b9050919050565b600060208201905081810360008301526128ff81612594565b9050919050565b6000602082019050818103600083015261291f816125b7565b9050919050565b6000602082019050818103600083015261293f816125da565b9050919050565b6000602082019050818103600083015261295f816125fd565b9050919050565b6000602082019050818103600083015261297f81612620565b9050919050565b6000602082019050818103600083015261299f81612643565b9050919050565b600060208201905081810360008301526129bf81612666565b9050919050565b600060208201905081810360008301526129df81612689565b9050919050565b600060208201905081810360008301526129ff816126ac565b9050919050565b6000602082019050612a1b60008301846126cf565b92915050565b6000612a2b612a3c565b9050612a378282612c8e565b919050565b6000604051905090565b600067ffffffffffffffff821115612a6157612a60612dc6565b5b612a6a82612df5565b9050602081019050919050565b600067ffffffffffffffff821115612a9257612a91612dc6565b5b612a9b82612df5565b9050602081019050919050565b600081519050919050565b600081519050919050565b600082825260208201905092915050565b600082825260208201905092915050565b600081905092915050565b6000612af682612c10565b9150612b0183612c10565b9250827fffffffffffffffffffffffffffffffffffffffffffffffffffffffffffffffff03821115612b3657612b35612d39565b5b828201905092915050565b6000612b4c82612c10565b9150612b5783612c10565b925082612b6757612b66612d68565b5b828204905092915050565b6000612b7d82612c10565b9150612b8883612c10565b925082821015612b9b57612b9a612d39565b5b828203905092915050565b6000612bb182612bf0565b9050919050565b60008115159050919050565b60007fffffffff0000000000000000000000000000000000000000000000000000000082169050919050565b600073ffffffffffffffffffffffffffffffffffffffff82169050919050565b6000819050919050565b82818337600083830152505050565b60005b83811015612c47578082015181840152602081019050612c2c565b83811115612c56576000848401525b50505050565b60006002820490506001821680612c7457607f821691505b60208210811415612c8857612c87612d97565b5b50919050565b612c9782612df5565b810181811067ffffffffffffffff82111715612cb657612cb5612dc6565b5b80604052505050565b6000612cca82612c10565b91507fffffffffffffffffffffffffffffffffffffffffffffffffffffffffffffffff821415612cfd57612cfc612d39565b5b600182019050919050565b6000612d1382612c10565b9150612d1e83612c10565b925082612d2e57612d2d612d68565b5b828206905092915050565b7f4e487b7100000000000000000000000000000000000000000000000000000000600052601160045260246000fd5b7f4e487b7100000000000000000000000000000000000000000000000000000000600052601260045260246000fd5b7f4e487b7100000000000000000000000000000000000000000000000000000000600052602260045260246000fd5b7f4e487b7100000000000000000000000000000000000000000000000000000000600052604160045260246000fd5b6000601f19601f8301169050919050565b7f4552433732313a207472616e7366657220746f206e6f6e20455243373231526560008201527f63656976657220696d706c656d656e7465720000000000000000000000000000602082015250565b7f4f776e61626c653a206e6577206f776e657220697320746865207a65726f206160008201527f6464726573730000000000000000000000000000000000000000000000000000602082015250565b7f4552433732313a20746f6b656e20616c7265616479206d696e74656400000000600082015250565b7f4552433732313a207472616e7366657220746f20746865207a65726f2061646460008201527f7265737300000000000000000000000000000000000000000000000000000000602082015250565b7f4552433732313a20617070726f766520746f2063616c6c657200000000000000600082015250565b7f4552433732313a206f70657261746f7220717565727920666f72206e6f6e657860008201527f697374656e7420746f6b656e0000000000000000000000000000000000000000602082015250565b7f4552433732313a20617070726f76652063616c6c6572206973206e6f74206f7760008201527f6e6572206e6f7220617070726f76656420666f7220616c6c0000000000000000602082015250565b7f4552433732313a2062616c616e636520717565727920666f7220746865207a6560008201527f726f206164647265737300000000000000000000000000000000000000000000602082015250565b7f4552433732313a206f776e657220717565727920666f72206e6f6e657869737460008201527f656e7420746f6b656e0000000000000000000000000000000000000000000000602082015250565b7f45524337323155524953746f726167653a2055524920736574206f66206e6f6e60008201527f6578697374656e7420746f6b656e000000000000000000000000000000000000602082015250565b7f4552433732313a206d696e7420746f20746865207a65726f2061646472657373600082015250565b7f45524337323155524953746f726167653a2055524920717565727920666f722060008201527f6e6f6e6578697374656e7420746f6b656e000000000000000000000000000000602082015250565b7f4552433732313a20617070726f76656420717565727920666f72206e6f6e657860008201527f697374656e7420746f6b656e0000000000000000000000000000000000000000602082015250565b7f4f776e61626c653a2063616c6c6572206973206e6f7420746865206f776e6572600082015250565b7f4552433732313a207472616e73666572206f6620746f6b656e2074686174206960008201527f73206e6f74206f776e0000000000000000000000000000000000000000000000602082015250565b7f4552433732314d657461646174613a2055524920717565727920666f72206e6f60008201527f6e6578697374656e7420746f6b656e0000000000000000000000000000000000602082015250565b7f4552433732313a20617070726f76616c20746f2063757272656e74206f776e6560008201527f7200000000000000000000000000000000000000000000000000000000000000602082015250565b7f53657276696365206e6f742072756e6e696e6700000000000000000000000000600082015250565b7f4552433732313a207472616e736665722063616c6c6572206973206e6f74206f60008201527f776e6572206e6f7220617070726f766564000000000000000000000000000000602082015250565b61332e81612ba6565b811461333957600080fd5b50565b61334581612bb8565b811461335057600080fd5b50565b61335c81612bc4565b811461336757600080fd5b50565b61337381612c10565b811461337e57600080fd5b5056fea264697066735822122085743f0f1d4edd8a555222311262bd7eb0dac051148900ed4a2495f86556a41364736f6c63430008040033",
  "linkReferences": {},
  "deployedLinkReferences": {}
}