{
  "_format": "hh-sol-artifact-1",
  "contractName": "MetaStorage",
  "sourceName": "contracts/MetaStorage.sol",
  "abi": [
    {
      "anonymous": false,
      "inputs": [
        {
          "indexed": true,
          "internalType": "address",
          "name": "_owner",
          "type": "address"
        },
        {
          "indexed": true,
          "internalType": "uint256",
          "name": "_id",
          "type": "uint256"
        }
      ],
      "name": "eventCreated",
      "type": "event"
    },
    {
      "inputs": [
        {
          "internalType": "string",
          "name": "_title",
          "type": "string"
        },
        {
          "internalType": "uint256",
          "name": "_price",
          "type": "uint256"
        },
        {
          "internalType": "string",
          "name": "_description",
          "type": "string"
        },
        {
          "internalType": "string",
          "name": "_image",
          "type": "string"
        },
        {
          "internalType": "uint256",
          "name": "_seats",
          "type": "uint256"
        },
        {
          "internalType": "uint256",
          "name": "_occupiedSeats",
          "type": "uint256"
        },
        {
          "internalType": "string",
          "name": "_link",
          "type": "string"
        }
      ],
      "name": "createEvent",
      "outputs": [],
      "stateMutability": "nonpayable",
      "type": "function"
    },
    {
      "inputs": [
        {
          "internalType": "address",
          "name": "owner",
          "type": "address"
        },
        {
          "internalType": "uint256",
          "name": "_id",
          "type": "uint256"
        }
      ],
      "name": "incrementTicketCount",
      "outputs": [],
      "stateMutability": "nonpayable",
      "type": "function"
    },
    {
      "inputs": [
        {
          "internalType": "address",
          "name": "owner",
          "type": "address"
        },
        {
          "internalType": "uint256",
          "name": "_id",
          "type": "uint256"
        }
      ],
      "name": "viewEvent",
      "outputs": [
        {
          "components": [
            {
              "internalType": "string",
              "name": "title",
              "type": "string"
            },
            {
              "internalType": "uint256",
              "name": "price",
              "type": "uint256"
            },
            {
              "internalType": "string",
              "name": "description",
              "type": "string"
            },
            {
              "internalType": "string",
              "name": "image",
              "type": "string"
            },
            {
              "internalType": "uint256",
              "name": "seats",
              "type": "uint256"
            },
            {
              "internalType": "uint256",
              "name": "occupiedSeats",
              "type": "uint256"
            },
            {
              "internalType": "string",
              "name": "manualLink",
              "type": "string"
            }
          ],
          "internalType": "struct MetaStorage.Event",
          "name": "_event",
          "type": "tuple"
        }
      ],
      "stateMutability": "view",
      "type": "function"
    }
  ],
  "bytecode": "0x608060405234801561001057600080fd5b506112a4806100206000396000f3fe608060405234801561001057600080fd5b50600436106100415760003560e01c806360f8c60814610046578063b7c3853714610076578063c1c21dda14610092575b600080fd5b610060600480360381019061005b9190610ce6565b6100ae565b60405161006d9190610f69565b60405180910390f35b610090600480360381019061008b9190610ce6565b6103bf565b005b6100ac60048036038101906100a79190610d22565b610899565b005b6100b6610b2a565b6000808473ffffffffffffffffffffffffffffffffffffffff1673ffffffffffffffffffffffffffffffffffffffff1681526020019081526020016000206001836101019190611064565b81548110610138577f4e487b7100000000000000000000000000000000000000000000000000000000600052603260045260246000fd5b90600052602060002090600702016040518060e001604052908160008201805461016190611116565b80601f016020809104026020016040519081016040528092919081815260200182805461018d90611116565b80156101da5780601f106101af576101008083540402835291602001916101da565b820191906000526020600020905b8154815290600101906020018083116101bd57829003601f168201915b50505050508152602001600182015481526020016002820180546101fd90611116565b80601f016020809104026020016040519081016040528092919081815260200182805461022990611116565b80156102765780601f1061024b57610100808354040283529160200191610276565b820191906000526020600020905b81548152906001019060200180831161025957829003601f168201915b5050505050815260200160038201805461028f90611116565b80601f01602080910402602001604051908101604052809291908181526020018280546102bb90611116565b80156103085780601f106102dd57610100808354040283529160200191610308565b820191906000526020600020905b8154815290600101906020018083116102eb57829003601f168201915b50505050508152602001600482015481526020016005820154815260200160068201805461033590611116565b80601f016020809104026020016040519081016040528092919081815260200182805461036190611116565b80156103ae5780601f10610383576101008083540402835291602001916103ae565b820191906000526020600020905b81548152906001019060200180831161039157829003601f168201915b505050505081525050905092915050565b60008060008473ffffffffffffffffffffffffffffffffffffffff1673ffffffffffffffffffffffffffffffffffffffff16815260200190815260200160002060018361040c9190611064565b81548110610443577f4e487b7100000000000000000000000000000000000000000000000000000000600052603260045260246000fd5b90600052602060002090600702016040518060e001604052908160008201805461046c90611116565b80601f016020809104026020016040519081016040528092919081815260200182805461049890611116565b80156104e55780601f106104ba576101008083540402835291602001916104e5565b820191906000526020600020905b8154815290600101906020018083116104c857829003601f168201915b505050505081526020016001820154815260200160028201805461050890611116565b80601f016020809104026020016040519081016040528092919081815260200182805461053490611116565b80156105815780601f1061055657610100808354040283529160200191610581565b820191906000526020600020905b81548152906001019060200180831161056457829003601f168201915b5050505050815260200160038201805461059a90611116565b80601f01602080910402602001604051908101604052809291908181526020018280546105c690611116565b80156106135780601f106105e857610100808354040283529160200191610613565b820191906000526020600020905b8154815290600101906020018083116105f657829003601f168201915b50505050508152602001600482015481526020016005820154815260200160068201805461064090611116565b80601f016020809104026020016040519081016040528092919081815260200182805461066c90611116565b80156106b95780601f1061068e576101008083540402835291602001916106b9565b820191906000526020600020905b81548152906001019060200180831161069c57829003601f168201915b50505050508152505090508060a0015181608001511161070e576040517f08c379a000000000000000000000000000000000000000000000000000000000815260040161070590610f49565b60405180910390fd5b60006040518060e00160405280836000015181526020018360200151815260200183604001518152602001836060015181526020018360800151815260200160018460a0015161075e919061100e565b81526020018360c001518152509050806000808673ffffffffffffffffffffffffffffffffffffffff1673ffffffffffffffffffffffffffffffffffffffff1681526020019081526020016000206001856107b99190611064565b815481106107f0577f4e487b7100000000000000000000000000000000000000000000000000000000600052603260045260246000fd5b9060005260206000209060070201600082015181600001908051906020019061081a929190610b67565b50602082015181600101556040820151816002019080519060200190610841929190610b67565b50606082015181600301908051906020019061085e929190610b67565b506080820151816004015560a0820151816005015560c082015181600601908051906020019061088f929190610b67565b5090505050505050565b60006040518060e001604052808c8c8080601f016020809104026020016040519081016040528093929190818152602001838380828437600081840152601f19601f8201169050808301925050505050505081526020018a815260200189898080601f016020809104026020016040519081016040528093929190818152602001838380828437600081840152601f19601f82011690508083019250505050505050815260200187878080601f016020809104026020016040519081016040528093929190818152602001838380828437600081840152601f19601f8201169050808301925050505050505081526020018581526020018481526020018381525090506000803373ffffffffffffffffffffffffffffffffffffffff1673ffffffffffffffffffffffffffffffffffffffff1681526020019081526020016000208190806001815401808255809150506001900390600052602060002090600702016000909190919091506000820151816000019080519060200190610a20929190610b67565b50602082015181600101556040820151816002019080519060200190610a47929190610b67565b506060820151816003019080519060200190610a64929190610b67565b506080820151816004015560a0820151816005015560c0820151816006019080519060200190610a95929190610b67565b5050506000803373ffffffffffffffffffffffffffffffffffffffff1673ffffffffffffffffffffffffffffffffffffffff168152602001908152602001600020805490503373ffffffffffffffffffffffffffffffffffffffff167f6c187a21126f97259f4571813b2fd10bb11732bf880540a1b462dced7a21b5dd60405160405180910390a35050505050505050505050565b6040518060e00160405280606081526020016000815260200160608152602001606081526020016000815260200160008152602001606081525090565b828054610b7390611116565b90600052602060002090601f016020900481019282610b955760008555610bdc565b82601f10610bae57805160ff1916838001178555610bdc565b82800160010185558215610bdc579182015b82811115610bdb578251825591602001919060010190610bc0565b5b509050610be99190610bed565b5090565b5b80821115610c06576000816000905550600101610bee565b5090565b6000610c1d610c1884610fb0565b610f8b565b905082815260208101848484011115610c3557600080fd5b610c408482856110d4565b509392505050565b600081359050610c5781611240565b92915050565b60008083601f840112610c6f57600080fd5b8235905067ffffffffffffffff811115610c8857600080fd5b602083019150836001820283011115610ca057600080fd5b9250929050565b600082601f830112610cb857600080fd5b8135610cc8848260208601610c0a565b91505092915050565b600081359050610ce081611257565b92915050565b60008060408385031215610cf957600080fd5b6000610d0785828601610c48565b9250506020610d1885828601610cd1565b9150509250929050565b60008060008060008060008060008060e08b8d031215610d4157600080fd5b60008b013567ffffffffffffffff811115610d5b57600080fd5b610d678d828e01610c5d565b9a509a50506020610d7a8d828e01610cd1565b98505060408b013567ffffffffffffffff811115610d9757600080fd5b610da38d828e01610c5d565b975097505060608b013567ffffffffffffffff811115610dc257600080fd5b610dce8d828e01610c5d565b95509550506080610de18d828e01610cd1565b93505060a0610df28d828e01610cd1565b92505060c08b013567ffffffffffffffff811115610e0f57600080fd5b610e1b8d828e01610ca7565b9150509295989b9194979a5092959850565b6000610e3882610fe1565b610e428185610fec565b9350610e528185602086016110e3565b610e5b81611206565b840191505092915050565b6000610e73600d83610ffd565b9150610e7e82611217565b602082019050919050565b600060e0830160008301518482036000860152610ea68282610e2d565b9150506020830151610ebb6020860182610f3a565b5060408301518482036040860152610ed38282610e2d565b91505060608301518482036060860152610eed8282610e2d565b9150506080830151610f026080860182610f3a565b5060a0830151610f1560a0860182610f3a565b5060c083015184820360c0860152610f2d8282610e2d565b9150508091505092915050565b610f43816110ca565b82525050565b60006020820190508181036000830152610f6281610e66565b9050919050565b60006020820190508181036000830152610f838184610e89565b905092915050565b6000610f95610fa6565b9050610fa18282611148565b919050565b6000604051905090565b600067ffffffffffffffff821115610fcb57610fca6111d7565b5b610fd482611206565b9050602081019050919050565b600081519050919050565b600082825260208201905092915050565b600082825260208201905092915050565b6000611019826110ca565b9150611024836110ca565b9250827fffffffffffffffffffffffffffffffffffffffffffffffffffffffffffffffff0382111561105957611058611179565b5b828201905092915050565b600061106f826110ca565b915061107a836110ca565b92508282101561108d5761108c611179565b5b828203905092915050565b60006110a3826110aa565b9050919050565b600073ffffffffffffffffffffffffffffffffffffffff82169050919050565b6000819050919050565b82818337600083830152505050565b60005b838110156111015780820151818401526020810190506110e6565b83811115611110576000848401525b50505050565b6000600282049050600182168061112e57607f821691505b60208210811415611142576111416111a8565b5b50919050565b61115182611206565b810181811067ffffffffffffffff821117156111705761116f6111d7565b5b80604052505050565b7f4e487b7100000000000000000000000000000000000000000000000000000000600052601160045260246000fd5b7f4e487b7100000000000000000000000000000000000000000000000000000000600052602260045260246000fd5b7f4e487b7100000000000000000000000000000000000000000000000000000000600052604160045260246000fd5b6000601f19601f8301169050919050565b7f4576656e742069732066756c6c00000000000000000000000000000000000000600082015250565b61124981611098565b811461125457600080fd5b50565b611260816110ca565b811461126b57600080fd5b5056fea2646970667358221220db51d5da05cabeaf3f1a2cda3d309aa34e8be2d6b783129c5561cd35741300fe64736f6c63430008040033",
  "linkReferences": {},
  "deployedLinkReferences": {}
}