{
  "_format": "hh-sol-artifact-1",
  "contractName": "Metapass",
  "sourceName": "contracts/Metapass.sol",
  "abi": [
    {
      "inputs": [],
      "stateMutability": "nonpayable",
      "type": "constructor"
    },
    {
      "anonymous": false,
      "inputs": [
        {
          "indexed": true,
          "internalType": "address",
          "name": "owner",
          "type": "address"
        },
        {
          "indexed": true,
          "internalType": "address",
          "name": "approved",
          "type": "address"
        },
        {
          "indexed": true,
          "internalType": "uint256",
          "name": "tokenId",
          "type": "uint256"
        }
      ],
      "name": "Approval",
      "type": "event"
    },
    {
      "anonymous": false,
      "inputs": [
        {
          "indexed": true,
          "internalType": "address",
          "name": "owner",
          "type": "address"
        },
        {
          "indexed": true,
          "internalType": "address",
          "name": "operator",
          "type": "address"
        },
        {
          "indexed": false,
          "internalType": "bool",
          "name": "approved",
          "type": "bool"
        }
      ],
      "name": "ApprovalForAll",
      "type": "event"
    },
    {
      "anonymous": false,
      "inputs": [
        {
          "indexed": true,
          "internalType": "uint256",
          "name": "_id",
          "type": "uint256"
        }
      ],
      "name": "Minted",
      "type": "event"
    },
    {
      "anonymous": false,
      "inputs": [
        {
          "indexed": true,
          "internalType": "address",
          "name": "previousOwner",
          "type": "address"
        },
        {
          "indexed": true,
          "internalType": "address",
          "name": "newOwner",
          "type": "address"
        }
      ],
      "name": "OwnershipTransferred",
      "type": "event"
    },
    {
      "anonymous": false,
      "inputs": [
        {
          "indexed": true,
          "internalType": "address",
          "name": "from",
          "type": "address"
        },
        {
          "indexed": true,
          "internalType": "address",
          "name": "to",
          "type": "address"
        },
        {
          "indexed": true,
          "internalType": "uint256",
          "name": "tokenId",
          "type": "uint256"
        }
      ],
      "name": "Transfer",
      "type": "event"
    },
    {
      "inputs": [],
      "name": "_claims",
      "outputs": [
        {
          "internalType": "uint256",
          "name": "",
          "type": "uint256"
        }
      ],
      "stateMutability": "view",
      "type": "function"
    },
    {
      "inputs": [],
      "name": "_toggleMinting",
      "outputs": [],
      "stateMutability": "nonpayable",
      "type": "function"
    },
    {
      "inputs": [
        {
          "internalType": "address",
          "name": "to",
          "type": "address"
        },
        {
          "internalType": "uint256",
          "name": "tokenId",
          "type": "uint256"
        }
      ],
      "name": "approve",
      "outputs": [],
      "stateMutability": "nonpayable",
      "type": "function"
    },
    {
      "inputs": [
        {
          "internalType": "address",
          "name": "owner",
          "type": "address"
        }
      ],
      "name": "balanceOf",
      "outputs": [
        {
          "internalType": "uint256",
          "name": "",
          "type": "uint256"
        }
      ],
      "stateMutability": "view",
      "type": "function"
    },
    {
      "inputs": [],
      "name": "cutDenominator",
      "outputs": [
        {
          "internalType": "uint256",
          "name": "",
          "type": "uint256"
        }
      ],
      "stateMutability": "view",
      "type": "function"
    },
    {
      "inputs": [],
      "name": "cutNumerator",
      "outputs": [
        {
          "internalType": "uint256",
          "name": "",
          "type": "uint256"
        }
      ],
      "stateMutability": "view",
      "type": "function"
    },
    {
      "inputs": [
        {
          "internalType": "uint256",
          "name": "tokenId",
          "type": "uint256"
        }
      ],
      "name": "getApproved",
      "outputs": [
        {
          "internalType": "address",
          "name": "",
          "type": "address"
        }
      ],
      "stateMutability": "view",
      "type": "function"
    },
    {
      "inputs": [],
      "name": "getEventDetails",
      "outputs": [
        {
          "components": [
            {
              "internalType": "string",
              "name": "encryptedLink",
              "type": "string"
            },
            {
              "internalType": "string",
              "name": "title",
              "type": "string"
            }
          ],
          "internalType": "struct Metapass.EventData[]",
          "name": "_EventData",
          "type": "tuple[]"
        }
      ],
      "stateMutability": "view",
      "type": "function"
    },
    {
      "inputs": [],
      "name": "getLastTokenId",
      "outputs": [
        {
          "internalType": "uint256",
          "name": "",
          "type": "uint256"
        }
      ],
      "stateMutability": "view",
      "type": "function"
    },
    {
      "inputs": [
        {
          "internalType": "address",
          "name": "eventOwner",
          "type": "address"
        },
        {
          "internalType": "string",
          "name": "tokenMetadata",
          "type": "string"
        },
        {
          "internalType": "string",
          "name": "_link",
          "type": "string"
        },
        {
          "internalType": "string",
          "name": "_title",
          "type": "string"
        }
      ],
      "name": "getTix",
      "outputs": [
        {
          "internalType": "uint256",
          "name": "",
          "type": "uint256"
        }
      ],
      "stateMutability": "payable",
      "type": "function"
    },
    {
      "inputs": [
        {
          "internalType": "address",
          "name": "owner",
          "type": "address"
        },
        {
          "internalType": "address",
          "name": "operator",
          "type": "address"
        }
      ],
      "name": "isApprovedForAll",
      "outputs": [
        {
          "internalType": "bool",
          "name": "",
          "type": "bool"
        }
      ],
      "stateMutability": "view",
      "type": "function"
    },
    {
      "inputs": [],
      "name": "name",
      "outputs": [
        {
          "internalType": "string",
          "name": "",
          "type": "string"
        }
      ],
      "stateMutability": "view",
      "type": "function"
    },
    {
      "inputs": [],
      "name": "owner",
      "outputs": [
        {
          "internalType": "address",
          "name": "",
          "type": "address"
        }
      ],
      "stateMutability": "view",
      "type": "function"
    },
    {
      "inputs": [
        {
          "internalType": "uint256",
          "name": "tokenId",
          "type": "uint256"
        }
      ],
      "name": "ownerOf",
      "outputs": [
        {
          "internalType": "address",
          "name": "",
          "type": "address"
        }
      ],
      "stateMutability": "view",
      "type": "function"
    },
    {
      "inputs": [],
      "name": "renounceOwnership",
      "outputs": [],
      "stateMutability": "nonpayable",
      "type": "function"
    },
    {
      "inputs": [
        {
          "internalType": "address",
          "name": "from",
          "type": "address"
        },
        {
          "internalType": "address",
          "name": "to",
          "type": "address"
        },
        {
          "internalType": "uint256",
          "name": "tokenId",
          "type": "uint256"
        }
      ],
      "name": "safeTransferFrom",
      "outputs": [],
      "stateMutability": "nonpayable",
      "type": "function"
    },
    {
      "inputs": [
        {
          "internalType": "address",
          "name": "from",
          "type": "address"
        },
        {
          "internalType": "address",
          "name": "to",
          "type": "address"
        },
        {
          "internalType": "uint256",
          "name": "tokenId",
          "type": "uint256"
        },
        {
          "internalType": "bytes",
          "name": "_data",
          "type": "bytes"
        }
      ],
      "name": "safeTransferFrom",
      "outputs": [],
      "stateMutability": "nonpayable",
      "type": "function"
    },
    {
      "inputs": [
        {
          "internalType": "address",
          "name": "operator",
          "type": "address"
        },
        {
          "internalType": "bool",
          "name": "approved",
          "type": "bool"
        }
      ],
      "name": "setApprovalForAll",
      "outputs": [],
      "stateMutability": "nonpayable",
      "type": "function"
    },
    {
      "inputs": [
        {
          "internalType": "bytes4",
          "name": "interfaceId",
          "type": "bytes4"
        }
      ],
      "name": "supportsInterface",
      "outputs": [
        {
          "internalType": "bool",
          "name": "",
          "type": "bool"
        }
      ],
      "stateMutability": "view",
      "type": "function"
    },
    {
      "inputs": [],
      "name": "symbol",
      "outputs": [
        {
          "internalType": "string",
          "name": "",
          "type": "string"
        }
      ],
      "stateMutability": "view",
      "type": "function"
    },
    {
      "inputs": [
        {
          "internalType": "uint256",
          "name": "tokenId",
          "type": "uint256"
        }
      ],
      "name": "tokenURI",
      "outputs": [
        {
          "internalType": "string",
          "name": "",
          "type": "string"
        }
      ],
      "stateMutability": "view",
      "type": "function"
    },
    {
      "inputs": [
        {
          "internalType": "address",
          "name": "from",
          "type": "address"
        },
        {
          "internalType": "address",
          "name": "to",
          "type": "address"
        },
        {
          "internalType": "uint256",
          "name": "tokenId",
          "type": "uint256"
        }
      ],
      "name": "transferFrom",
      "outputs": [],
      "stateMutability": "nonpayable",
      "type": "function"
    },
    {
      "inputs": [
        {
          "internalType": "address",
          "name": "newOwner",
          "type": "address"
        }
      ],
      "name": "transferOwnership",
      "outputs": [],
      "stateMutability": "nonpayable",
      "type": "function"
    },
    {
      "inputs": [
        {
          "internalType": "uint256",
          "name": "numerator",
          "type": "uint256"
        },
        {
          "internalType": "uint256",
          "name": "denominator",
          "type": "uint256"
        }
      ],
      "name": "updateCut",
      "outputs": [],
      "stateMutability": "nonpayable",
      "type": "function"
    },
    {
      "inputs": [],
      "name": "widthdraw",
      "outputs": [],
      "stateMutability": "nonpayable",
      "type": "function"
    }
  ],
  "bytecode": "0x6080604052600060085560646009556000600b60006101000a81548160ff0219169083151502179055503480156200003657600080fd5b506040518060400160405280600881526020017f4d657461706173730000000000000000000000000000000000000000000000008152506040518060400160405280600381526020017f4d504100000000000000000000000000000000000000000000000000000000008152508160009080519060200190620000bb929190620001cb565b508060019080519060200190620000d4929190620001cb565b505050620000f7620000eb620000fd60201b60201c565b6200010560201b60201c565b620002e0565b600033905090565b6000600760009054906101000a900473ffffffffffffffffffffffffffffffffffffffff16905081600760006101000a81548173ffffffffffffffffffffffffffffffffffffffff021916908373ffffffffffffffffffffffffffffffffffffffff1602179055508173ffffffffffffffffffffffffffffffffffffffff168173ffffffffffffffffffffffffffffffffffffffff167f8be0079c531659141344cd1fd0a4f28419497f9722a3daafe3b4186f6b6457e060405160405180910390a35050565b828054620001d9906200027b565b90600052602060002090601f016020900481019282620001fd576000855562000249565b82601f106200021857805160ff191683800117855562000249565b8280016001018555821562000249579182015b82811115620002485782518255916020019190600101906200022b565b5b5090506200025891906200025c565b5090565b5b80821115620002775760008160009055506001016200025d565b5090565b600060028204905060018216806200029457607f821691505b60208210811415620002ab57620002aa620002b1565b5b50919050565b7f4e487b7100000000000000000000000000000000000000000000000000000000600052602260045260246000fd5b613b1c80620002f06000396000f3fe6080604052600436106101665760003560e01c80637420cc65116100d1578063abf0f5731161008a578063d28970e711610064578063d28970e714610504578063e2bb3ccf14610534578063e985e9c51461055f578063f2fde38b1461059c57610166565b8063abf0f57314610473578063b88d4fde1461049e578063c87b56dd146104c757610166565b80637420cc651461037557806383c4c00d1461039e5780638da5cb5b146103c957806395d89b41146103f4578063a1b1a9811461041f578063a22cb4651461044a57610166565b806342842e0e1161012357806342842e0e1461028d57806352b50a2a146102b657806354b3f266146102cd5780636352211e146102e457806370a0823114610321578063715018a61461035e57610166565b806301ffc9a71461016b57806306fdde03146101a8578063081812fc146101d3578063089eb32d14610210578063095ea7b31461023b57806323b872dd14610264575b600080fd5b34801561017757600080fd5b50610192600480360381019061018d9190612857565b6105c5565b60405161019f9190612e2a565b60405180910390f35b3480156101b457600080fd5b506101bd6106a7565b6040516101ca9190612e45565b60405180910390f35b3480156101df57600080fd5b506101fa60048036038101906101f591906128a9565b610739565b6040516102079190612da1565b60405180910390f35b34801561021c57600080fd5b506102256107be565b60405161023291906130c7565b60405180910390f35b34801561024757600080fd5b50610262600480360381019061025d919061281b565b6107c4565b005b34801561027057600080fd5b5061028b6004803603810190610286919061266a565b6108dc565b005b34801561029957600080fd5b506102b460048036038101906102af919061266a565b61093c565b005b3480156102c257600080fd5b506102cb61095c565b005b3480156102d957600080fd5b506102e2610a2f565b005b3480156102f057600080fd5b5061030b600480360381019061030691906128a9565b610ad7565b6040516103189190612da1565b60405180910390f35b34801561032d57600080fd5b5061034860048036038101906103439190612605565b610b89565b60405161035591906130c7565b60405180910390f35b34801561036a57600080fd5b50610373610c41565b005b34801561038157600080fd5b5061039c600480360381019061039791906128d2565b610cc9565b005b3480156103aa57600080fd5b506103b3610d57565b6040516103c091906130c7565b60405180910390f35b3480156103d557600080fd5b506103de610d74565b6040516103eb9190612da1565b60405180910390f35b34801561040057600080fd5b50610409610d9e565b6040516104169190612e45565b60405180910390f35b34801561042b57600080fd5b50610434610e30565b60405161044191906130c7565b60405180910390f35b34801561045657600080fd5b50610471600480360381019061046c9190612734565b610e77565b005b34801561047f57600080fd5b50610488610ff8565b60405161049591906130c7565b60405180910390f35b3480156104aa57600080fd5b506104c560048036038101906104c091906126b9565b610ffe565b005b3480156104d357600080fd5b506104ee60048036038101906104e991906128a9565b611060565b6040516104fb9190612e45565b60405180910390f35b61051e60048036038101906105199190612770565b6111b2565b60405161052b91906130c7565b60405180910390f35b34801561054057600080fd5b506105496113f1565b6040516105569190612e08565b60405180910390f35b34801561056b57600080fd5b506105866004803603810190610581919061262e565b6115b1565b6040516105939190612e2a565b60405180910390f35b3480156105a857600080fd5b506105c360048036038101906105be9190612605565b611645565b005b60007f80ac58cd000000000000000000000000000000000000000000000000000000007bffffffffffffffffffffffffffffffffffffffffffffffffffffffff1916827bffffffffffffffffffffffffffffffffffffffffffffffffffffffff1916148061069057507f5b5e139f000000000000000000000000000000000000000000000000000000007bffffffffffffffffffffffffffffffffffffffffffffffffffffffff1916827bffffffffffffffffffffffffffffffffffffffffffffffffffffffff1916145b806106a0575061069f8261173d565b5b9050919050565b6060600080546106b6906133c1565b80601f01602080910402602001604051908101604052809291908181526020018280546106e2906133c1565b801561072f5780601f106107045761010080835404028352916020019161072f565b820191906000526020600020905b81548152906001019060200180831161071257829003601f168201915b5050505050905090565b6000610744826117a7565b610783576040517f08c379a000000000000000000000000000000000000000000000000000000000815260040161077a90612fe7565b60405180910390fd5b6004600083815260200190815260200160002060009054906101000a900473ffffffffffffffffffffffffffffffffffffffff169050919050565b60095481565b60006107cf82610ad7565b90508073ffffffffffffffffffffffffffffffffffffffff168373ffffffffffffffffffffffffffffffffffffffff161415610840576040517f08c379a000000000000000000000000000000000000000000000000000000000815260040161083790613067565b60405180910390fd5b8073ffffffffffffffffffffffffffffffffffffffff1661085f611813565b73ffffffffffffffffffffffffffffffffffffffff16148061088e575061088d81610888611813565b6115b1565b5b6108cd576040517f08c379a00000000000000000000000000000000000000000000000000000000081526004016108c490612f27565b60405180910390fd5b6108d7838361181b565b505050565b6108ed6108e7611813565b826118d4565b61092c576040517f08c379a0000000000000000000000000000000000000000000000000000000008152600401610923906130a7565b60405180910390fd5b6109378383836119b2565b505050565b61095783838360405180602001604052806000815250610ffe565b505050565b6000600c60003373ffffffffffffffffffffffffffffffffffffffff1673ffffffffffffffffffffffffffffffffffffffff1681526020019081526020016000205490503373ffffffffffffffffffffffffffffffffffffffff166108fc829081150290604051600060405180830381858888f193505050501580156109e6573d6000803e3d6000fd5b506000600c60003373ffffffffffffffffffffffffffffffffffffffff1673ffffffffffffffffffffffffffffffffffffffff1681526020019081526020016000208190555050565b610a37611813565b73ffffffffffffffffffffffffffffffffffffffff16610a55610d74565b73ffffffffffffffffffffffffffffffffffffffff1614610aab576040517f08c379a0000000000000000000000000000000000000000000000000000000008152600401610aa290613007565b60405180910390fd5b600b60009054906101000a900460ff1615600b60006101000a81548160ff021916908315150217905550565b6000806002600084815260200190815260200160002060009054906101000a900473ffffffffffffffffffffffffffffffffffffffff169050600073ffffffffffffffffffffffffffffffffffffffff168173ffffffffffffffffffffffffffffffffffffffff161415610b80576040517f08c379a0000000000000000000000000000000000000000000000000000000008152600401610b7790612f67565b60405180910390fd5b80915050919050565b60008073ffffffffffffffffffffffffffffffffffffffff168273ffffffffffffffffffffffffffffffffffffffff161415610bfa576040517f08c379a0000000000000000000000000000000000000000000000000000000008152600401610bf190612f47565b60405180910390fd5b600360008373ffffffffffffffffffffffffffffffffffffffff1673ffffffffffffffffffffffffffffffffffffffff168152602001908152602001600020549050919050565b610c49611813565b73ffffffffffffffffffffffffffffffffffffffff16610c67610d74565b73ffffffffffffffffffffffffffffffffffffffff1614610cbd576040517f08c379a0000000000000000000000000000000000000000000000000000000008152600401610cb490613007565b60405180910390fd5b610cc76000611c0e565b565b610cd1611813565b73ffffffffffffffffffffffffffffffffffffffff16610cef610d74565b73ffffffffffffffffffffffffffffffffffffffff1614610d45576040517f08c379a0000000000000000000000000000000000000000000000000000000008152600401610d3c90613007565b60405180910390fd5b81600881905550806009819055505050565b60006001610d65600a611cd4565b610d6f91906132d7565b905090565b6000600760009054906101000a900473ffffffffffffffffffffffffffffffffffffffff16905090565b606060018054610dad906133c1565b80601f0160208091040260200160405190810160405280929190818152602001828054610dd9906133c1565b8015610e265780601f10610dfb57610100808354040283529160200191610e26565b820191906000526020600020905b815481529060010190602001808311610e0957829003601f168201915b5050505050905090565b6000600c60003373ffffffffffffffffffffffffffffffffffffffff1673ffffffffffffffffffffffffffffffffffffffff16815260200190815260200160002054905090565b610e7f611813565b73ffffffffffffffffffffffffffffffffffffffff168273ffffffffffffffffffffffffffffffffffffffff161415610eed576040517f08c379a0000000000000000000000000000000000000000000000000000000008152600401610ee490612ee7565b60405180910390fd5b8060056000610efa611813565b73ffffffffffffffffffffffffffffffffffffffff1673ffffffffffffffffffffffffffffffffffffffff16815260200190815260200160002060008473ffffffffffffffffffffffffffffffffffffffff1673ffffffffffffffffffffffffffffffffffffffff16815260200190815260200160002060006101000a81548160ff0219169083151502179055508173ffffffffffffffffffffffffffffffffffffffff16610fa7611813565b73ffffffffffffffffffffffffffffffffffffffff167f17307eab39ab6107e8899845ad3d59bd9653f200f220920489ca2b5937696c3183604051610fec9190612e2a565b60405180910390a35050565b60085481565b61100f611009611813565b836118d4565b61104e576040517f08c379a0000000000000000000000000000000000000000000000000000000008152600401611045906130a7565b60405180910390fd5b61105a84848484611ce2565b50505050565b606061106b826117a7565b6110aa576040517f08c379a00000000000000000000000000000000000000000000000000000000081526004016110a190612fc7565b60405180910390fd5b60006006600084815260200190815260200160002080546110ca906133c1565b80601f01602080910402602001604051908101604052809291908181526020018280546110f6906133c1565b80156111435780601f1061111857610100808354040283529160200191611143565b820191906000526020600020905b81548152906001019060200180831161112657829003601f168201915b505050505090506000611154611d3e565b905060008151141561116a5781925050506111ad565b60008251111561119f578082604051602001611187929190612d7d565b604051602081830303815290604052925050506111ad565b6111a884611d55565b925050505b919050565b600060011515600b60009054906101000a900460ff1615151461120a576040517f08c379a000000000000000000000000000000000000000000000000000000000815260040161120190613087565b60405180910390fd5b61121d33611218600a611cd4565b611dfc565b61123061122a600a611cd4565b85611e1a565b600061123c600a611cd4565b9050611248600a611e8e565b60006009546008543461125b919061327d565b611265919061324c565b905060006040518060400160405280878152602001868152509050600d60003373ffffffffffffffffffffffffffffffffffffffff1673ffffffffffffffffffffffffffffffffffffffff1681526020019081526020016000208190806001815401808255809150506001900390600052602060002090600202016000909190919091506000820151816000019080519060200190611305929190612429565b506020820151816001019080519060200190611322929190612429565b505050813461133191906132d7565b600c60008a73ffffffffffffffffffffffffffffffffffffffff1673ffffffffffffffffffffffffffffffffffffffff168152602001908152602001600020600082825461137f91906131f6565b9250508190555081600c6000611393610d74565b73ffffffffffffffffffffffffffffffffffffffff1673ffffffffffffffffffffffffffffffffffffffff16815260200190815260200160002060008282546113dc91906131f6565b92505081905550829350505050949350505050565b6060600d60003373ffffffffffffffffffffffffffffffffffffffff1673ffffffffffffffffffffffffffffffffffffffff168152602001908152602001600020805480602002602001604051908101604052809291908181526020016000905b828210156115a85783829060005260206000209060020201604051806040016040529081600082018054611485906133c1565b80601f01602080910402602001604051908101604052809291908181526020018280546114b1906133c1565b80156114fe5780601f106114d3576101008083540402835291602001916114fe565b820191906000526020600020905b8154815290600101906020018083116114e157829003601f168201915b50505050508152602001600182018054611517906133c1565b80601f0160208091040260200160405190810160405280929190818152602001828054611543906133c1565b80156115905780601f1061156557610100808354040283529160200191611590565b820191906000526020600020905b81548152906001019060200180831161157357829003601f168201915b50505050508152505081526020019060010190611452565b50505050905090565b6000600560008473ffffffffffffffffffffffffffffffffffffffff1673ffffffffffffffffffffffffffffffffffffffff16815260200190815260200160002060008373ffffffffffffffffffffffffffffffffffffffff1673ffffffffffffffffffffffffffffffffffffffff16815260200190815260200160002060009054906101000a900460ff16905092915050565b61164d611813565b73ffffffffffffffffffffffffffffffffffffffff1661166b610d74565b73ffffffffffffffffffffffffffffffffffffffff16146116c1576040517f08c379a00000000000000000000000000000000000000000000000000000000081526004016116b890613007565b60405180910390fd5b600073ffffffffffffffffffffffffffffffffffffffff168173ffffffffffffffffffffffffffffffffffffffff161415611731576040517f08c379a000000000000000000000000000000000000000000000000000000000815260040161172890612e87565b60405180910390fd5b61173a81611c0e565b50565b60007f01ffc9a7000000000000000000000000000000000000000000000000000000007bffffffffffffffffffffffffffffffffffffffffffffffffffffffff1916827bffffffffffffffffffffffffffffffffffffffffffffffffffffffff1916149050919050565b60008073ffffffffffffffffffffffffffffffffffffffff166002600084815260200190815260200160002060009054906101000a900473ffffffffffffffffffffffffffffffffffffffff1673ffffffffffffffffffffffffffffffffffffffff1614159050919050565b600033905090565b816004600083815260200190815260200160002060006101000a81548173ffffffffffffffffffffffffffffffffffffffff021916908373ffffffffffffffffffffffffffffffffffffffff160217905550808273ffffffffffffffffffffffffffffffffffffffff1661188e83610ad7565b73ffffffffffffffffffffffffffffffffffffffff167f8c5be1e5ebec7d5bd14f71427d1e84f3dd0314c0f7b2291e5b200ac8c7c3b92560405160405180910390a45050565b60006118df826117a7565b61191e576040517f08c379a000000000000000000000000000000000000000000000000000000000815260040161191590612f07565b60405180910390fd5b600061192983610ad7565b90508073ffffffffffffffffffffffffffffffffffffffff168473ffffffffffffffffffffffffffffffffffffffff16148061199857508373ffffffffffffffffffffffffffffffffffffffff1661198084610739565b73ffffffffffffffffffffffffffffffffffffffff16145b806119a957506119a881856115b1565b5b91505092915050565b8273ffffffffffffffffffffffffffffffffffffffff166119d282610ad7565b73ffffffffffffffffffffffffffffffffffffffff1614611a28576040517f08c379a0000000000000000000000000000000000000000000000000000000008152600401611a1f90613027565b60405180910390fd5b600073ffffffffffffffffffffffffffffffffffffffff168273ffffffffffffffffffffffffffffffffffffffff161415611a98576040517f08c379a0000000000000000000000000000000000000000000000000000000008152600401611a8f90612ec7565b60405180910390fd5b611aa3838383611ea4565b611aae60008261181b565b6001600360008573ffffffffffffffffffffffffffffffffffffffff1673ffffffffffffffffffffffffffffffffffffffff1681526020019081526020016000206000828254611afe91906132d7565b925050819055506001600360008473ffffffffffffffffffffffffffffffffffffffff1673ffffffffffffffffffffffffffffffffffffffff1681526020019081526020016000206000828254611b5591906131f6565b92505081905550816002600083815260200190815260200160002060006101000a81548173ffffffffffffffffffffffffffffffffffffffff021916908373ffffffffffffffffffffffffffffffffffffffff160217905550808273ffffffffffffffffffffffffffffffffffffffff168473ffffffffffffffffffffffffffffffffffffffff167fddf252ad1be2c89b69c2b068fc378daa952ba7f163c4a11628f55a4df523b3ef60405160405180910390a4505050565b6000600760009054906101000a900473ffffffffffffffffffffffffffffffffffffffff16905081600760006101000a81548173ffffffffffffffffffffffffffffffffffffffff021916908373ffffffffffffffffffffffffffffffffffffffff1602179055508173ffffffffffffffffffffffffffffffffffffffff168173ffffffffffffffffffffffffffffffffffffffff167f8be0079c531659141344cd1fd0a4f28419497f9722a3daafe3b4186f6b6457e060405160405180910390a35050565b600081600001549050919050565b611ced8484846119b2565b611cf984848484611ea9565b611d38576040517f08c379a0000000000000000000000000000000000000000000000000000000008152600401611d2f90612e67565b60405180910390fd5b50505050565b606060405180602001604052806000815250905090565b6060611d60826117a7565b611d9f576040517f08c379a0000000000000000000000000000000000000000000000000000000008152600401611d9690613047565b60405180910390fd5b6000611da9611d3e565b90506000815111611dc95760405180602001604052806000815250611df4565b80611dd384612040565b604051602001611de4929190612d7d565b6040516020818303038152906040525b915050919050565b611e168282604051806020016040528060008152506121ed565b5050565b611e23826117a7565b611e62576040517f08c379a0000000000000000000000000000000000000000000000000000000008152600401611e5990612f87565b60405180910390fd5b80600660008481526020019081526020016000209080519060200190611e89929190612429565b505050565b6001816000016000828254019250508190555050565b505050565b6000611eca8473ffffffffffffffffffffffffffffffffffffffff16612248565b15612033578373ffffffffffffffffffffffffffffffffffffffff1663150b7a02611ef3611813565b8786866040518563ffffffff1660e01b8152600401611f159493929190612dbc565b602060405180830381600087803b158015611f2f57600080fd5b505af1925050508015611f6057506040513d601f19601f82011682018060405250810190611f5d9190612880565b60015b611fe3573d8060008114611f90576040519150601f19603f3d011682016040523d82523d6000602084013e611f95565b606091505b50600081511415611fdb576040517f08c379a0000000000000000000000000000000000000000000000000000000008152600401611fd290612e67565b60405180910390fd5b805181602001fd5b63150b7a0260e01b7bffffffffffffffffffffffffffffffffffffffffffffffffffffffff1916817bffffffffffffffffffffffffffffffffffffffffffffffffffffffff191614915050612038565b600190505b949350505050565b60606000821415612088576040518060400160405280600181526020017f300000000000000000000000000000000000000000000000000000000000000081525090506121e8565b600082905060005b600082146120ba5780806120a390613424565b915050600a826120b3919061324c565b9150612090565b60008167ffffffffffffffff8111156120fc577f4e487b7100000000000000000000000000000000000000000000000000000000600052604160045260246000fd5b6040519080825280601f01601f19166020018201604052801561212e5781602001600182028036833780820191505090505b5090505b600085146121e15760018261214791906132d7565b9150600a85612156919061346d565b603061216291906131f6565b60f81b81838151811061219e577f4e487b7100000000000000000000000000000000000000000000000000000000600052603260045260246000fd5b60200101907effffffffffffffffffffffffffffffffffffffffffffffffffffffffffffff1916908160001a905350600a856121da919061324c565b9450612132565b8093505050505b919050565b6121f7838361225b565b6122046000848484611ea9565b612243576040517f08c379a000000000000000000000000000000000000000000000000000000000815260040161223a90612e67565b60405180910390fd5b505050565b600080823b905060008111915050919050565b600073ffffffffffffffffffffffffffffffffffffffff168273ffffffffffffffffffffffffffffffffffffffff1614156122cb576040517f08c379a00000000000000000000000000000000000000000000000000000000081526004016122c290612fa7565b60405180910390fd5b6122d4816117a7565b15612314576040517f08c379a000000000000000000000000000000000000000000000000000000000815260040161230b90612ea7565b60405180910390fd5b61232060008383611ea4565b6001600360008473ffffffffffffffffffffffffffffffffffffffff1673ffffffffffffffffffffffffffffffffffffffff168152602001908152602001600020600082825461237091906131f6565b92505081905550816002600083815260200190815260200160002060006101000a81548173ffffffffffffffffffffffffffffffffffffffff021916908373ffffffffffffffffffffffffffffffffffffffff160217905550808273ffffffffffffffffffffffffffffffffffffffff16600073ffffffffffffffffffffffffffffffffffffffff167fddf252ad1be2c89b69c2b068fc378daa952ba7f163c4a11628f55a4df523b3ef60405160405180910390a45050565b828054612435906133c1565b90600052602060002090601f016020900481019282612457576000855561249e565b82601f1061247057805160ff191683800117855561249e565b8280016001018555821561249e579182015b8281111561249d578251825591602001919060010190612482565b5b5090506124ab91906124af565b5090565b5b808211156124c85760008160009055506001016124b0565b5090565b60006124df6124da84613107565b6130e2565b9050828152602081018484840111156124f757600080fd5b61250284828561337f565b509392505050565b600061251d61251884613138565b6130e2565b90508281526020810184848401111561253557600080fd5b61254084828561337f565b509392505050565b60008135905061255781613a8a565b92915050565b60008135905061256c81613aa1565b92915050565b60008135905061258181613ab8565b92915050565b60008151905061259681613ab8565b92915050565b600082601f8301126125ad57600080fd5b81356125bd8482602086016124cc565b91505092915050565b600082601f8301126125d757600080fd5b81356125e784826020860161250a565b91505092915050565b6000813590506125ff81613acf565b92915050565b60006020828403121561261757600080fd5b600061262584828501612548565b91505092915050565b6000806040838503121561264157600080fd5b600061264f85828601612548565b925050602061266085828601612548565b9150509250929050565b60008060006060848603121561267f57600080fd5b600061268d86828701612548565b935050602061269e86828701612548565b92505060406126af868287016125f0565b9150509250925092565b600080600080608085870312156126cf57600080fd5b60006126dd87828801612548565b94505060206126ee87828801612548565b93505060406126ff878288016125f0565b925050606085013567ffffffffffffffff81111561271c57600080fd5b6127288782880161259c565b91505092959194509250565b6000806040838503121561274757600080fd5b600061275585828601612548565b92505060206127668582860161255d565b9150509250929050565b6000806000806080858703121561278657600080fd5b600061279487828801612548565b945050602085013567ffffffffffffffff8111156127b157600080fd5b6127bd878288016125c6565b935050604085013567ffffffffffffffff8111156127da57600080fd5b6127e6878288016125c6565b925050606085013567ffffffffffffffff81111561280357600080fd5b61280f878288016125c6565b91505092959194509250565b6000806040838503121561282e57600080fd5b600061283c85828601612548565b925050602061284d858286016125f0565b9150509250929050565b60006020828403121561286957600080fd5b600061287784828501612572565b91505092915050565b60006020828403121561289257600080fd5b60006128a084828501612587565b91505092915050565b6000602082840312156128bb57600080fd5b60006128c9848285016125f0565b91505092915050565b600080604083850312156128e557600080fd5b60006128f3858286016125f0565b9250506020612904858286016125f0565b9150509250929050565b600061291a8383612d2a565b905092915050565b61292b8161330b565b82525050565b600061293c82613179565b61294681856131a7565b93508360208202850161295885613169565b8060005b858110156129945784840389528151612975858261290e565b94506129808361319a565b925060208a0199505060018101905061295c565b50829750879550505050505092915050565b6129af8161331d565b82525050565b60006129c082613184565b6129ca81856131b8565b93506129da81856020860161338e565b6129e38161355a565b840191505092915050565b60006129f98261318f565b612a0381856131c9565b9350612a1381856020860161338e565b612a1c8161355a565b840191505092915050565b6000612a328261318f565b612a3c81856131da565b9350612a4c81856020860161338e565b612a558161355a565b840191505092915050565b6000612a6b8261318f565b612a7581856131eb565b9350612a8581856020860161338e565b80840191505092915050565b6000612a9e6032836131da565b9150612aa98261356b565b604082019050919050565b6000612ac16026836131da565b9150612acc826135ba565b604082019050919050565b6000612ae4601c836131da565b9150612aef82613609565b602082019050919050565b6000612b076024836131da565b9150612b1282613632565b604082019050919050565b6000612b2a6019836131da565b9150612b3582613681565b602082019050919050565b6000612b4d602c836131da565b9150612b58826136aa565b604082019050919050565b6000612b706038836131da565b9150612b7b826136f9565b604082019050919050565b6000612b93602a836131da565b9150612b9e82613748565b604082019050919050565b6000612bb66029836131da565b9150612bc182613797565b604082019050919050565b6000612bd9602e836131da565b9150612be4826137e6565b604082019050919050565b6000612bfc6020836131da565b9150612c0782613835565b602082019050919050565b6000612c1f6031836131da565b9150612c2a8261385e565b604082019050919050565b6000612c42602c836131da565b9150612c4d826138ad565b604082019050919050565b6000612c656020836131da565b9150612c70826138fc565b602082019050919050565b6000612c886029836131da565b9150612c9382613925565b604082019050919050565b6000612cab602f836131da565b9150612cb682613974565b604082019050919050565b6000612cce6021836131da565b9150612cd9826139c3565b604082019050919050565b6000612cf16013836131da565b9150612cfc82613a12565b602082019050919050565b6000612d146031836131da565b9150612d1f82613a3b565b604082019050919050565b60006040830160008301518482036000860152612d4782826129ee565b91505060208301518482036020860152612d6182826129ee565b9150508091505092915050565b612d7781613375565b82525050565b6000612d898285612a60565b9150612d958284612a60565b91508190509392505050565b6000602082019050612db66000830184612922565b92915050565b6000608082019050612dd16000830187612922565b612dde6020830186612922565b612deb6040830185612d6e565b8181036060830152612dfd81846129b5565b905095945050505050565b60006020820190508181036000830152612e228184612931565b905092915050565b6000602082019050612e3f60008301846129a6565b92915050565b60006020820190508181036000830152612e5f8184612a27565b905092915050565b60006020820190508181036000830152612e8081612a91565b9050919050565b60006020820190508181036000830152612ea081612ab4565b9050919050565b60006020820190508181036000830152612ec081612ad7565b9050919050565b60006020820190508181036000830152612ee081612afa565b9050919050565b60006020820190508181036000830152612f0081612b1d565b9050919050565b60006020820190508181036000830152612f2081612b40565b9050919050565b60006020820190508181036000830152612f4081612b63565b9050919050565b60006020820190508181036000830152612f6081612b86565b9050919050565b60006020820190508181036000830152612f8081612ba9565b9050919050565b60006020820190508181036000830152612fa081612bcc565b9050919050565b60006020820190508181036000830152612fc081612bef565b9050919050565b60006020820190508181036000830152612fe081612c12565b9050919050565b6000602082019050818103600083015261300081612c35565b9050919050565b6000602082019050818103600083015261302081612c58565b9050919050565b6000602082019050818103600083015261304081612c7b565b9050919050565b6000602082019050818103600083015261306081612c9e565b9050919050565b6000602082019050818103600083015261308081612cc1565b9050919050565b600060208201905081810360008301526130a081612ce4565b9050919050565b600060208201905081810360008301526130c081612d07565b9050919050565b60006020820190506130dc6000830184612d6e565b92915050565b60006130ec6130fd565b90506130f882826133f3565b919050565b6000604051905090565b600067ffffffffffffffff8211156131225761312161352b565b5b61312b8261355a565b9050602081019050919050565b600067ffffffffffffffff8211156131535761315261352b565b5b61315c8261355a565b9050602081019050919050565b6000819050602082019050919050565b600081519050919050565b600081519050919050565b600081519050919050565b6000602082019050919050565b600082825260208201905092915050565b600082825260208201905092915050565b600082825260208201905092915050565b600082825260208201905092915050565b600081905092915050565b600061320182613375565b915061320c83613375565b9250827fffffffffffffffffffffffffffffffffffffffffffffffffffffffffffffffff038211156132415761324061349e565b5b828201905092915050565b600061325782613375565b915061326283613375565b925082613272576132716134cd565b5b828204905092915050565b600061328882613375565b915061329383613375565b9250817fffffffffffffffffffffffffffffffffffffffffffffffffffffffffffffffff04831182151516156132cc576132cb61349e565b5b828202905092915050565b60006132e282613375565b91506132ed83613375565b925082821015613300576132ff61349e565b5b828203905092915050565b600061331682613355565b9050919050565b60008115159050919050565b60007fffffffff0000000000000000000000000000000000000000000000000000000082169050919050565b600073ffffffffffffffffffffffffffffffffffffffff82169050919050565b6000819050919050565b82818337600083830152505050565b60005b838110156133ac578082015181840152602081019050613391565b838111156133bb576000848401525b50505050565b600060028204905060018216806133d957607f821691505b602082108114156133ed576133ec6134fc565b5b50919050565b6133fc8261355a565b810181811067ffffffffffffffff8211171561341b5761341a61352b565b5b80604052505050565b600061342f82613375565b91507fffffffffffffffffffffffffffffffffffffffffffffffffffffffffffffffff8214156134625761346161349e565b5b600182019050919050565b600061347882613375565b915061348383613375565b925082613493576134926134cd565b5b828206905092915050565b7f4e487b7100000000000000000000000000000000000000000000000000000000600052601160045260246000fd5b7f4e487b7100000000000000000000000000000000000000000000000000000000600052601260045260246000fd5b7f4e487b7100000000000000000000000000000000000000000000000000000000600052602260045260246000fd5b7f4e487b7100000000000000000000000000000000000000000000000000000000600052604160045260246000fd5b6000601f19601f8301169050919050565b7f4552433732313a207472616e7366657220746f206e6f6e20455243373231526560008201527f63656976657220696d706c656d656e7465720000000000000000000000000000602082015250565b7f4f776e61626c653a206e6577206f776e657220697320746865207a65726f206160008201527f6464726573730000000000000000000000000000000000000000000000000000602082015250565b7f4552433732313a20746f6b656e20616c7265616479206d696e74656400000000600082015250565b7f4552433732313a207472616e7366657220746f20746865207a65726f2061646460008201527f7265737300000000000000000000000000000000000000000000000000000000602082015250565b7f4552433732313a20617070726f766520746f2063616c6c657200000000000000600082015250565b7f4552433732313a206f70657261746f7220717565727920666f72206e6f6e657860008201527f697374656e7420746f6b656e0000000000000000000000000000000000000000602082015250565b7f4552433732313a20617070726f76652063616c6c6572206973206e6f74206f7760008201527f6e6572206e6f7220617070726f76656420666f7220616c6c0000000000000000602082015250565b7f4552433732313a2062616c616e636520717565727920666f7220746865207a6560008201527f726f206164647265737300000000000000000000000000000000000000000000602082015250565b7f4552433732313a206f776e657220717565727920666f72206e6f6e657869737460008201527f656e7420746f6b656e0000000000000000000000000000000000000000000000602082015250565b7f45524337323155524953746f726167653a2055524920736574206f66206e6f6e60008201527f6578697374656e7420746f6b656e000000000000000000000000000000000000602082015250565b7f4552433732313a206d696e7420746f20746865207a65726f2061646472657373600082015250565b7f45524337323155524953746f726167653a2055524920717565727920666f722060008201527f6e6f6e6578697374656e7420746f6b656e000000000000000000000000000000602082015250565b7f4552433732313a20617070726f76656420717565727920666f72206e6f6e657860008201527f697374656e7420746f6b656e0000000000000000000000000000000000000000602082015250565b7f4f776e61626c653a2063616c6c6572206973206e6f7420746865206f776e6572600082015250565b7f4552433732313a207472616e73666572206f6620746f6b656e2074686174206960008201527f73206e6f74206f776e0000000000000000000000000000000000000000000000602082015250565b7f4552433732314d657461646174613a2055524920717565727920666f72206e6f60008201527f6e6578697374656e7420746f6b656e0000000000000000000000000000000000602082015250565b7f4552433732313a20617070726f76616c20746f2063757272656e74206f776e6560008201527f7200000000000000000000000000000000000000000000000000000000000000602082015250565b7f53657276696365206e6f742072756e6e696e6700000000000000000000000000600082015250565b7f4552433732313a207472616e736665722063616c6c6572206973206e6f74206f60008201527f776e6572206e6f7220617070726f766564000000000000000000000000000000602082015250565b613a938161330b565b8114613a9e57600080fd5b50565b613aaa8161331d565b8114613ab557600080fd5b50565b613ac181613329565b8114613acc57600080fd5b50565b613ad881613375565b8114613ae357600080fd5b5056fea26469706673582212207f91dfcf85986b0b89b0c743bac36447c93092d7e74a307d8199e09926c425ac64736f6c63430008040033",
  "linkReferences": {},
  "deployedLinkReferences": {}
}